:020000040000FA
:100000002100F830990006288231042AFF308D0043
:10001000951323008D01240004308D002000A001E1
:10002000A1010130A0020030A13B031D11280D19D0
:10003000002A0D142100FE308D00BF308E002300F9
:100040009C0119309B001E119F119E161D161E1239
:100050009D172000D330F8000130F900922165216E
:100060007208FA005E21CD2157307202031D40282C
:100070007D10A220FA30F8000130F90092212A28E0
:1000800056307202031D54287D14FB01FC01A2208E
:100090007C08A900BA217B08A900BA21F230F80037
:1000A0000130F90092212A2852307202031D5A2889
:1000B00066202A2847307202031D65288D01FC3016
:1000C000F8000130F9009221002A2A280530AA0000
:1000D0000030F0000230F100052123001408200058
:1000E0003F3C031D9F28230013082000FF3C031DF5
:1000F0009F28AA0B8428AA0AFF307002031D9628A5
:100100003F307102031D96287108A900BA217008BA
:10011000A900BA21D021230014082000A900BA2187
:10012000230013082000A900BA21CD210130F007D7
:100130000030F13D7108403C031D6C28080005307B
:10014000AA008428E530F8000130F90092218730B8
:10015000FD0565213A307202031DA9288921720824
:10016000A5000310A50C89217208F10089217208ED
:10017000F0000310F10CF00C8921FD107D1100300E
:100180007202031DCD287108A8007008A70039214C
:10019000FD142808F1002708F00004307202031D46
:1001A000D32842217D1501307202031DDB28422134
:1001B00065216521652989217208F3008921FD1CCB
:1001C000F828FD1DF8287D18E7284F21F82805217B
:1001D0002300140820007202031DF42823001308D2
:1001E000200073020319F8280130FB070030FC3DA2
:1001F000F00AA50BDB287D1D042900307202031DC7
:100200000329FD150429FD11A928230059211513DF
:100210009517151400000000200008002300151693
:10022000592195171513151555309600AA309600CB
:100230009514000000001511200008002300730829
:10024000930072089400951670081F391F3A03191D
:100250003529FD1A35297D167008F4007108F5005E
:100260007308F7007208F600102995127D12FD122E
:10027000102971087502031D422974087002E039C3
:10028000031908007D1808007D1E08007508F1009C
:100290007408F0007708F3007608F200FD160230CB
:1002A000710203185429080070081F3903190E2120
:1002B0001E29700891007108920008007A08111E2A
:1002C0005F2923009A002000080023009D1C6A2952
:1002D0001D121D162000911E652923001D1D732966
:1002E0001908F20065291908F20061307202031C36
:1002F0007F297B30720203187F29E030F20720004B
:100300007208513C031D080000303F00ED00200042
:100310002A286521B321720EA6006521B321260883
:10032000F204080023007908920078089100072160
:10033000230014082000FA0023007A13931B7A1775
:1003400020007A08031908005E212300130820000A
:10035000FA00FA1320007A08031908005E21F80A4F
:100360000319F90A9229721FB7290930F2070F30D1
:10037000F20508002908890EC0212908C0210800BB
:100380000F39FA000A307A02031CC9293730FA07FC
:10039000CB293030FA045E2108000A305F210800C2
:1003A00020305F2108004D0AEE258A35D71BF21D4B
:1003B000F4298A25D61BE51DE932F9265B0ADD12F0
:1003C000E1258A24C71BEF1D000AE513E42E48200F
:1003D000D805E926E52C5B20DD117420A02FF5312E
:1003E000F429000A7620F225E629A039F225EF3219
:0E03F000F332000ACB0F000AF902A125000A21
:020000040001F9
:02000E00A42F1D
:02001000FE39B7
:00000001FF
