:020000040000FA
:100400008231F52A00000000993157292000400868
:1004100087003F08860041080739893582070114A3
:100420000800811408000115080081150800011654
:100430000800811608000117080081170800200035
:10044000400887003F088600410807398935820740
:100450000110080081100800011108008111080036
:10046000011208008112080001130800811308001E
:100470002000400887003F08860041080739893579
:10048000893582074410011844140800441081186B
:100490004414080044100119441408004410811940
:1004A000441408004410011A441408004410811A2E
:1004B000441408004410011B441408004410811B1C
:1004C00044140800023020008A006A303E070A0007
:1004D000C30008000F340F340F340F3417341F34A7
:1004E000273467343F347F341F341F341F341F34A4
:1004F000273467344734273467344334433407346C
:1005000000340034023020008A008A303E070A009E
:10051000C50008000034013402340334803404344C
:10052000803480340C340A34083409340B340D34EC
:10053000803480348034803480348034803480341B
:1005400080348034023020008A0045080F39AB3EE9
:100550000A00BE00080000340134023403340534BC
:100560008034803480340A340B3409340C34083439
:100570000D348034803422003608073989358207EB
:10058000A1311229A1316E29A131CA29A231262A0D
:10059000A231822AA231DE2AA3313A2BA331962B33
:1005A0008231933163233D302B00E8000B30E900AA
:1005B00003302200C7000A30C8000030C9000130F3
:1005C000CA0003302000A6008F31512703302200DB
:1005D000C7000A30C8000130C9004030CA000330EB
:1005E0002000A6008F31512708008B13F030210026
:1005F0009900FF308E000E1320000E1721008E1779
:100600000E13003023009C0033309B001E119F11FD
:100610009E161D161E129D17A331F223A4316524C8
:100620002200BC171D3020009B0006309C002100DA
:100630009515951610302200A600A501A701A80166
:10064000EC01ED01EE01EF01A401CF012000A101B9
:10065000A0012200E201A2309700003098002000A3
:100660000B1721009114200091108B17BC30220031
:10067000B700A731882722008331B81F412B83316F
:10068000512B220083313819472B83314D2BA73151
:10069000A927A731CD2783314F2B8231D122833136
:1006A000532B8231D122000002302A0028028331EC
:1006B00003188B2B8331291B5F2B83318B2B053048
:1006C0002A002B028331031D8B2B52302200BE00E7
:1006D000A431432420302200BE00A4314324423000
:1006E0002200BE00A431432432302200BE00A431D7
:1006F000432420302200BE00A431432426005408A5
:100700002000BA00260055082000BB0097314A2778
:1007100000302A00AB0022008331A418912B8331D2
:10072000D72B2200A4100030AC0015302C028331EE
:10073000031C9D2B8331031DD72B8331A62B153032
:1007400022002C0283310318D72BAC0A22002C087C
:1007500089358935AD0023302000850022002D0821
:100760002000840000082200AE0002302E028331F7
:10077000031DBC2B8331C22B053022002E02833196
:10078000031DD52B2200AD0A233020008500220056
:100790002D082000840000082200AE0083312E19AD
:1007A000D32B8331D52BAB31042383319F2B2200F4
:1007B00083312419DD2B8431232C220024110030B5
:1007C000AC0015302C028331031CE92B8431031D4E
:1007D000232C8331F22B153022002C028431031894
:1007E000232CAC0A22002C0889358935AD00233032
:1007F0002000850022002D0820008400000822002F
:10080000AE0002302E028431031D082C84310E2CE0
:10081000053022002E028431031D212C2200AD0A56
:1008200023302000850022002D08200084000008CD
:100830002200AE008431AE191F2C8431212CAB3143
:1008400004238331EB2B2B0084315018292C843165
:10085000352C22008431CF1B2F2C8431332C2200E5
:10086000CF13B331DF238C31A02C04302A002002B7
:100870008431031D9C2C27008431D118412C8431F4
:100880009C2C2700D1108431511C482C8431732CAE
:100890002A008431A1184E2C8431712C5230220050
:1008A000BE00A431432420302200BE00A4314324E2
:1008B00042302200BE00A431432430302200BE006A
:1008C000A431432420302200BE00A4314324303020
:1008D0002200BE00A43143240A302200BE00A4310D
:1008E000432484319C2C2A0084312118792C8431B2
:1008F0009C2C52302200BE00A43143242030220020
:10090000BE00A431432442302200BE00A43143245F
:1009100030302200BE00A431432420302200BE002B
:10092000A431432431302200BE00A43143240A30D4
:100930002200BE00A431432404302A002402853161
:10094000031D032D27008431D318A82C8531032DD6
:100950002700D3108431531CAF2C8431DA2C2A00A9
:100960008431A518B52C8431D82C52302200BE0019
:10097000A431432420302200BE00A431432442305D
:100980002200BE00A431432431302200BE00A43135
:10099000432420302200BE00A43143243030220002
:1009A000BE00A43143240A302200BE00A4314324F7
:1009B0008531032D2A0084312518E02C8531032D43
:1009C00052302200BE00A431432420302200BE0059
:1009D000A431432442302200BE00A43143243130EC
:1009E0002200BE00A431432420302200BE00A431E6
:1009F000432431302200BE00A43143240A302200B7
:100A0000BE00A431432404302A0028028531031D8E
:100A10006A2D27008531D5180F2D85316A2D2700C5
:100A2000D5108531551C162D8531412D2A00853173
:100A3000A9181C2D85313F2D52302200BE00A43153
:100A4000432420302200BE00A4314324423022003F
:100A5000BE00A431432432302200BE00A43143241E
:100A600020302200BE00A431432430302200BE00DA
:100A7000A43143240A302200BE00A431432485312E
:100A80006A2D2A0085312918472D85316A2D52306B
:100A90002200BE00A431432420302200BE00A43135
:100AA000432442302200BE00A431432432302200CD
:100AB000BE00A431432420302200BE00A4314324D0
:100AC00031302200BE00A43143240A302200BE008F
:100AD000A431432404302A002C028531031DD12D7A
:100AE00027008531D718762D8531D12D2700D710D5
:100AF0008531571C7D2D8531A82D2A008531AD18F3
:100B0000832D8531A62D52302200BE00A43143240E
:100B100020302200BE00A431432442302200BE0017
:100B2000A431432433302200BE00A43143242030BA
:100B30002200BE00A431432430302200BE00A43184
:100B400043240A302200BE00A43143248531D12D34
:100B50002A0085312D18AE2D8531D12D523022003D
:100B6000BE00A431432420302200BE00A43143241F
:100B700042302200BE00A431432433302200BE00A4
:100B8000A431432420302200BE00A431432431305C
:100B90002200BE00A43143240A302200BE00A4314A
:100BA000432404302A0030028631031D382E2700EA
:100BB0008531D918DD2D8631382E2700D9108531A1
:100BC000591CE42D86310F2E2A008531B118EA2DEB
:100BD00086310D2E52302200BE00A4314324203035
:100BE0002200BE00A431432442302200BE00A431C2
:100BF000432434302200BE00A4314324203022009C
:100C0000BE00A431432430302200BE00A43143246E
:100C10000A302200BE00A43143248631382E2A0037
:100C200086313118152E8631382E52302200BE0002
:100C3000A431432420302200BE00A431432442309A
:100C40002200BE00A431432434302200BE00A4316F
:100C5000432420302200BE00A4314324313022003E
:100C6000BE00A43143240A302200BE00A431432434
:100C700004302A0034028631031D9F2E270086315E
:100C8000DB18442E86319F2E2700DB1086315B1C3B
:100C90004B2E8631762E2A008631B518512E86319C
:100CA000742E52302200BE00A43143242030220092
:100CB000BE00A431432442302200BE00A4314324AC
:100CC00035302200BE00A431432420302200BE0073
:100CD000A431432430302200BE00A43143240A3022
:100CE0002200BE00A431432486319F2E2A00863183
:100CF00035187C2E86319F2E52302200BE00A43142
:100D0000432420302200BE00A4314324423022007C
:100D1000BE00A431432435302200BE00A431432458
:100D200020302200BE00A431432431302200BE0016
:100D3000A43143240A302200BE00A43143240430ED
:100D40002A0030028731031D062F27008631C9187B
:100D5000AB2E8731062F2700C9108631491CB22ED1
:100D60008631DD2E2A008631B118B82E8631DB2E71
:100D700052302200BE00A431432420302200BE00A5
:100D8000A431432441302200BE00A4314324343036
:100D90002200BE00A431432420302200BE00A43132
:100DA000432430302200BE00A43143240A30220004
:100DB000BE00A43143248731062F2A008631311822
:100DC000E32E8731062F52302200BE00A431432487
:100DD00020302200BE00A431432441302200BE0056
:100DE000A431432434302200BE00A43143242030F7
:100DF0002200BE00A431432431302200BE00A431C1
:100E000043240A302200BE00A431432404302A00C7
:100E100034028731031D6D2F27008731CB18122F25
:100E200087316D2F2700CB1087314B1C192F87314D
:100E3000442F2A008731B5181F2F8731422F523097
:100E40002200BE00A431432420302200BE00A43181
:100E5000432441302200BE00A43143243530220017
:100E6000BE00A431432420302200BE00A43143241C
:100E700030302200BE00A43143240A302200BE00DC
:100E8000A431432487316D2F2A00873135184A2F2A
:100E900087316D2F52302200BE00A4314324203010
:100EA0002200BE00A431432441302200BE00A43100
:100EB000432435302200BE00A431432420302200D8
:100EC000BE00A431432431302200BE00A4314324AB
:100ED0000A302200BE00A431432422008731A41925
:100EE000732F883167280330290050028731031D92
:100EF000892F8731511B7E2F8731892F02302200A5
:100F0000C7000030C800C90102302000A6008F31A0
:100F100051270330290054028731031D9F2F873149
:100F2000551B942F87319F2F02302200C7000130BC
:100F3000C800C90102302000A6008F3151270330BC
:100F4000290058028731031DB52F8731591BAA2F5D
:100F50008731B52F02302200C7000230C800C90116
:100F600002302000A6008F315127033029005C0297
:100F70008731031DCB2F87315D1BC02F8731CB2FCE
:100F800002302200C7000330C800C901023020002F
:100F9000A6008F3151270330290064028731031DD9
:100FA000E12F8731651BD62F8731E12F02302200D8
:100FB000C7000530C800C90102302000A6008F31EB
:100FC000512703302A0020028731031DF72F873174
:100FD000211BEC2F8731F72F02302200C700083089
:100FE000C800C90102302000A6008F31512703300C
:100FF0002A0024028831031D0D288831251B022870
:1010000088310D2802302200C7000930C800C9010C
:1010100002302000A6008F31512703302A00280219
:101020008831031D23288831291B1828883123285B
:1010300002302200C7000A30C800C9010230200077
:10104000A6008F31512703302A002C028831031D5E
:10105000392888312D1B2E2888313928023022006A
:10106000C7000B30C800C90102302000A6008F3134
:10107000512703302A0030028831031D4F28883160
:10108000311B442888314F2802302200C7000C3021
:10109000C800C90102302000A6008F31512703305B
:1010A0002A0034028831031D65288831351B5A28EF
:1010B0008831652802302200C7000D30C800C90100
:1010C00002302000A6008F3151272200A4110030E9
:1010D000290068028831031D6F2888317528013086
:1010E000290068028831031DDF28200088310C1F89
:1010F0007B288831AE2829008831E9188128883179
:10110000AA28270088314C1887288831AA2852300D
:101110002200BE00A431432420302200BE00A431AE
:10112000432441302200BE00A43143243630220043
:10113000BE00A431432420302200BE00A431432449
:1011400030302200BE00A43143240A302200BE0009
:10115000A431432427004C108831DF28290088312E
:101160006918B4288831DD28270088314C1CBA283A
:101170008831DD2852302200BE00A43143242030C3
:101180002200BE00A431432441302200BE00A4311D
:10119000432436302200BE00A431432420302200F4
:1011A000BE00A431432431302200BE00A4314324C8
:1011B0000A302200BE00A431432427004C14003022
:1011C00029006C028831031DE7288831ED280130A1
:1011D00029006C028931031D5729200088318C1F9A
:1011E000F3288931262929008831ED18F928893119
:1011F0002229270088314E18FF28893122295230B0
:101200002200BE00A431432420302200BE00A431BD
:10121000432441302200BE00A43143243730220051
:10122000BE00A431432420302200BE00A431432458
:1012300030302200BE00A43143240A302200BE0018
:10124000A431432427004E108931572929008931C0
:101250006D182C2989315529270089314E1C3229D6
:101260008931552952302200BE00A4314324203058
:101270002200BE00A431432441302200BE00A4312C
:10128000432437302200BE00A43143242030220002
:10129000BE00A431432431302200BE00A4314324D7
:1012A0000A302200BE00A431432427004E1400302F
:1012B0002A0030028931031D5F29893165290130F7
:1012C0002A0030028931031DCF29200089310D1EEB
:1012D0006B2989319E292A008931B11871298931F8
:1012E0009A29270089315818772989319A2952304B
:1012F0002200BE00A431432420302200BE00A431CD
:10130000432442302200BE00A43143243430220062
:10131000BE00A431432420302200BE00A431432467
:1013200030302200BE00A43143240A302200BE0027
:10133000A4314324270058108931CF292A0089314C
:101340003118A4298931CD2927008931581CAA29AF
:101350008931CD2952302200BE00A43143242030EF
:101360002200BE00A431432442302200BE00A4313A
:10137000432434302200BE00A43143242030220014
:10138000BE00A431432431302200BE00A4314324E6
:101390000A302200BE00A431432427005814003034
:1013A0002A0034028931031DD7298931DD29013012
:1013B0002A0034028A31031D472A200089318D1EFC
:1013C000E3298A31162A2A008931B518E9298A3198
:1013D000122A270089315A18EF298A31122A5230ED
:1013E0002200BE00A431432420302200BE00A431DC
:1013F000432442302200BE00A43143243530220071
:10140000BE00A431432420302200BE00A431432476
:1014100030302200BE00A43143240A302200BE0036
:10142000A431432427005A108A31472A2A008A31DE
:1014300035181C2A8A31452A27008A315A1C222A4B
:101440008A31452A52302200BE00A4314324203084
:101450002200BE00A431432442302200BE00A43149
:10146000432435302200BE00A43143242030220022
:10147000BE00A431432431302200BE00A4314324F5
:101480000A302200BE00A431432427005A14003041
:101490002A0040028A31031D4F2A8A31552A013021
:1014A0002A0040028A31031DBF2A20008A310E1C07
:1014B0005B2A8A318E2A2A008A31C118612A8A3130
:1014C0008A2A27008A316018672A8A318A2A52308C
:1014D0002200BE00A431432420302200BE00A431EB
:1014E000432443302200BE00A43143243030220084
:1014F000BE00A431432420302200BE00A431432486
:1015000030302200BE00A43143240A302200BE0045
:10151000A4314324270060108A31BF2A2A008A316F
:101520004118942A8A31BD2A27008A31601C9A2AE0
:101530008A31BD2A52302200BE00A431432420301B
:101540002200BE00A431432443302200BE00A43157
:10155000432430302200BE00A43143242030220036
:10156000BE00A431432431302200BE00A431432404
:101570000A302200BE00A43143242700601400304A
:101580002A0044028A31031DC72A8A31CD2A01303C
:101590002A0044028B31031D372B20008A318E1C18
:1015A000D32A8B31062B2A008A31C518D92A8B31D0
:1015B000022B27008A316218DF2A8B31022B52302E
:1015C0002200BE00A431432420302200BE00A431FA
:1015D000432443302200BE00A43143243130220092
:1015E000BE00A431432420302200BE00A431432495
:1015F00030302200BE00A43143240A302200BE0055
:10160000A4314324270062108B31372B2A008B3101
:1016100045180C2B8B31352B27008B31621C122B7C
:101620008B31352B52302200BE00A43143242030B0
:101630002200BE00A431432443302200BE00A43166
:10164000432431302200BE00A43143242030220044
:10165000BE00A431432431302200BE00A431432413
:101660000A302200BE00A431432427006214003057
:101670002A0048028B31031D3F2B8B31452B013053
:101680002A0048028B31031DAF2B20008B310E1D29
:101690004B2B8B317E2B2A008B31C918512B8B3170
:1016A0007A2B27008B316418572B8B317A2B5230D1
:1016B0002200BE00A431432420302200BE00A43109
:1016C000432443302200BE00A431432432302200A0
:1016D000BE00A431432420302200BE00A4314324A4
:1016E00030302200BE00A43143240A302200BE0064
:1016F000A4314324270064108B31AF2B2A008B3197
:101700004918842B8B31AD2B27008B31641C8A2B1D
:101710008B31AD2B52302200BE00A4314324203047
:101720002200BE00A431432443302200BE00A43175
:10173000432432302200BE00A43143242030220052
:10174000BE00A431432431302200BE00A431432422
:101750000A302200BE00A431432427006414003064
:101760002A004C028B31031DB72B8B31BD2B01306E
:101770002A004C028C31031D272C20008B318E1D3A
:10178000C32B8B31F62B2A008B31CD18C92B8B3113
:10179000F22B27008B316618CF2B8B31F22B523076
:1017A0002200BE00A431432420302200BE00A43118
:1017B000432443302200BE00A431432433302200AE
:1017C000BE00A431432420302200BE00A4314324B3
:1017D00030302200BE00A43143240A302200BE0073
:1017E000A4314324270066108C31272C2A008B312A
:1017F0004D18FC2B8C31252C27008C31661C022CBB
:101800008C31252C52302200BE00A43143242030DC
:101810002200BE00A431432443302200BE00A43184
:10182000432433302200BE00A43143242030220060
:10183000BE00A431432431302200BE00A431432431
:101840000A302200BE00A43143242700661422007F
:101850008C31A41B2D2C8C316A2C2200A4132B005C
:101860008C316418352C8C316A2C52302200BE0029
:10187000A431432420302200BE00A4314324583038
:101880002200BE00A431432420302200BE00A43137
:1018900043242B0067082000BA0095319C253A307C
:1018A0002200BE00A43143242B0066082000BA00A9
:1018B0009531EC253A302200BE00A43143242B00A0
:1018C00065082000BA009531EC250A302200BE00E0
:1018D000A431432406302A0040028C31031DA02C81
:1018E0008C31C11B752C8C31A02C27008C316018D9
:1018F0007B2C8C31A02C52302200BE00A43143241A
:1019000020302200BE00A431432443302200BE0018
:10191000A431432430302200BE00A43143242030BF
:101920002200BE00A4314324260060082000BA0033
:10193000260061082000BB0097314A27270060106D
:101940000000A4316B2422008C313C1DA92C8D3168
:101950000D2D2200EC01ED01EE01EF014208B20075
:101960002B008C31EC1CB62C8C31BB2C2200420895
:10197000BE00A43143242200B501513042028C3113
:10198000031DCA2C2B008C31EC1CC82C8C31CA2CAA
:10199000983127282030220042028C310318D42CA1
:1019A0008D31202D8C31A12C2A30220042028C3125
:1019B000031DDE2C8D31202D8C31A12C23302200F3
:1019C00042028C31031DE82C8D31202D8C31A12C4D
:1019D0006130220042028C31031CFA2C7A30420220
:1019E0008C31031CF62C8C31031DFA2C2030220084
:1019F0004202C200273020002107A20022088400F2
:101A0000850122004208200080000F3021028D3124
:101A100003180B2DA10A8C31A12CF03022003502C5
:101A20008D31031C1E2D03191E2DB5010030200021
:101A300021028D3103191E2D8D31202D8331532B21
:101A40008D3124258331532B00302200C700003014
:101A5000200021028D31031D2F2D8D31782D033073
:101A6000200021028D310318372D8D316B2D203050
:101A7000200028028D3103193F2D8D316B2D5730F9
:101A8000200027028D31031D4A2D01302200C7009E
:101A90008D317C2D5230200027028D31031D552DB4
:101AA00002302200C7008D317C2D533020002702E8
:101AB0008D31031D602D03302200C7008D317C2D38
:101AC0004730200027028D31031D6B2D043022008A
:101AD000C7008D317C2D2B008D31EC1C712D8D318B
:101AE000782D22302200B9003B30BA00A631BD2645
:101AF00000302000A1000800FF302200C8000030A4
:101B0000C9004130200029028D31031CEA2D4330E9
:101B100029028D31031C8F2D8D31031DEA2D41309B
:101B2000200029022200C800C835C835C835043055
:101B3000200021028D3103189F2D8D316B2D303007
:101B400020002A028D310318A72D8D316B2D3730DF
:101B500020002A028D31031CB12D0319B12D8D31C6
:101B60006B2D2200480820002A072200C8003030D0
:101B70004802C8000530200021028D310318C42D11
:101B80000230A6008F314E2F203020002B028D31E5
:101B9000031DCE2D0430A5008E31332E30302000B1
:101BA0002B028D310318D62D8D316B2D3330200053
:101BB0002B028D31031CE02D0319E02D8D316B2D8F
:101BC000303020002B022200C90005302000A50083
:101BD0008E31332E5330200029028E31031C312EDA
:101BE0005A3029028D31031CF82D8E31031D312E00
:101BF0002B30200029022200C800043020002102DE
:101C00008E310318072E0230A6008F314E2F203060
:101C100020002A028E31031D152E00302200C9003B
:101C200003302000A5008E31332E303020002A02F0
:101C30008E3103181D2E8D316B2D333020002A027A
:101C40008E31031C272E0319272E8D316B2D30303A
:101C500020002A022200C90004302000A5008E3195
:101C6000332E8D316B2D00302200CA000030CB00A6
:101C70002000250821028E31031C412E8E31031DC8
:101C8000462E02302000A6008F314E2F2730200034
:101C90002507A2002208840085010008A300203047
:101CA00023028E310319562E8D316B2D2000A50A8B
:101CB0002000210825028E310318CD2EA20A220809
:101CC000840085010008A300203023028E31031D0B
:101CD0006B2E8E31D22E3030200023028E3103182D
:101CE000732E8D316B2D3930200023028E31031C71
:101CF0007D2E03197D2E8D316B2D22004A08200088
:101D0000E30022004B082000E4002200CA01CB01BE
:101D100003102000E30DE40D63082200CA07200031
:101D20008E310318952E8E31982E01302200CB076C
:101D3000200064082200CB0703102000E30DE40D0F
:101D40000310E30DE40D63082200CA0720008E3162
:101D50000318AC2E8E31AF2E01302200CB072000AD
:101D600064082200CB07303020002302A30000309B
:101D7000A40023082200CA0720008E310318C22EB7
:101D80008E31C52E01302200CB072000240822000E
:101D9000CB072000A50A8E31582E03302000A60064
:101DA0008F314E2F00302200CC000030CD00273084
:101DB00020002507A200A50A2000210825028F3156
:101DC0000318492FA20A2208840085010008A300F5
:101DD000303023028E310318EF2E8D316B2D3930C8
:101DE000200023028E31031CF92E0319F92E8D31A8
:101DF0006B2D22004C082000E30022004D0820003B
:101E0000E4002200CC01CD0103102000E30DE40D1D
:101E100063082200CC0720008F310318112F8F3167
:101E2000142F01302200CD07200064082200CD07C6
:101E300003102000E30DE40D0310E30DE40D63082F
:101E40002200CC0720008F310318282F8F312B2F31
:101E500001302200CD07200064082200CD07303079
:101E600020002302A3000030A40023082200CC0796
:101E700020008F3103183E2F8F31412F0130220077
:101E8000CD07200024082200CD072000A50A8E31AE
:101E9000DC2E04302000A6008F314E2F00302000B1
:101EA000A1000130220047028F31031DD72F1030CF
:101EB00048028F31031D6A2F06302A0040028F31FD
:101EC000031D6A2F22004A082000960022004B08BA
:101ED000200097001530220048028F31031C732F19
:101EE0008F31031DD72F220048082000BE009531F6
:101EF0005D250230200042028F31031DB32F2200E6
:101F00004808AD00AD35AD35AD0A23302000850061
:101F100022002D08200084000008C8008F31481AD4
:101F2000932F8F31972FA631EE268F31B12F2200BC
:101F30008F314A189D2F8F31A82F0C302000BF0001
:101F40000130C00095316D25823106228F31B12FCD
:101F50000C302000BF000130C00095316D2582316A
:101F60001F229331332B0530200042028F31031D95
:101F7000D72F3E0889352200AD0022302000850091
:101F800022002D082000840022004A082000800042
:101F90002200AD0A22302000850022002D082000FA
:101FA000840022004B08200080009331332B023044
:101FB000220047029131031DAD29103048028F31B4
:101FC000031DEC2F06302A0040028F31031DEC2F39
:101FD000A831DC209131AD29133022004802903124
:101FE000031D0A2806302A004C029031031D0A28DE
:101FF0000230200026029031031C01289031031D7D
:10200000062800302200CA000030CB00AA319E22F0
:102010009131AD291430220048029031031D8628E9
:1020200006302A0050029031031D862852302200CB
:10203000BE00A431432420302200BE00A43143243A
:1020400043302200BE00A431432434302200BE00BD
:10205000A431432420302200BE00A43143242200B6
:102060004F082000BA009631D82620302200BE004A
:10207000A4314324220062082000BA002200630831
:102080002000BB009631E62620302200BE00A4319D
:102090004324220060082000BA009631D826203060
:1020A0002200BE00A431432422006108BE00973103
:1020B000362720302200BE00A431432422005008DD
:1020C0002000BA00220051082000BB009631E6260D
:1020D00020302200BE00A4314324220058082000F2
:1020E000BA00220059082000BB0022005A08200034
:1020F000BC0022005B082000BD00973101270A3098
:102100002200BE00A43143249131AD2916302200B3
:10211000480291310318AD2948082000BE009531CE
:102120005D250030200042029031031D9928903136
:10213000A7280130200042029031031DA1289031D0
:10214000A7280230200042029131031D1B292200E2
:102150004808AD00AD35AD35AD0A2330200085000F
:1021600022002D08200084000008C8009031481A81
:10217000BB289031CC280C302000BF000030C000BC
:1021800095316D252000400887003F088600010832
:10219000BA00BB01913102290A3020003E02903181
:1021A000031DE7282A009031291BD8289031E72801
:1021B00002302A00280290310318E72800302B0251
:1021C0009031031DE7280130AB009331322B0C30E6
:1021D0002000BF000030C00095316D2582313822CB
:1021E00020009031441CF6289031FD28003020005A
:1021F000BA000030BB009131022901302000BA0042
:102200000030BB0020009131201C082991311B298E
:1022100052302200BE00A431432420302200BE00F0
:10222000A43143249531792520302200BE00A43109
:10223000432497314F270330200042029131031D80
:102240006829220048082000BE0082318222200036
:102250009131C21F2D299131682920009131201C14
:1022600033299131442952302200BE00A431432445
:1022700020302200BE00A43143249531792520303E
:102280002200BE00A431432422004808AD00AD3531
:10229000AD35AD0A23302000850022002D08200036
:1022A00084000008C8002200AD0A23302000850009
:1022B00022002D08200084000008C70097315E2707
:1022C00020009131201C66299131682997314A27D5
:1022D0000430200042029131031D7029913176298A
:1022E0000530200042029131031DAD2920009131BB
:1022F000201C7C2991318D2952302200BE00A4314E
:10230000432420302200BE00A43143249531792596
:1023100020302200BE00A431432420003E0889352D
:102320002200AD0022302000850022002D08200070
:1023300084000008BA002200AD0A22302000850087
:1023400022002D08200084000008BB009131201CD1
:10235000AB299131AD2997314A270330220047023A
:102360009231031D7D2A2B0091316C18B9299131CE
:10237000C1292730220048029231031C7D2A03190B
:102380007D2A1330220048029131031DD5290630E1
:102390002A004C029131031DD529063022004A0241
:1023A00091310319D529A93137211430220048026F
:1023B0009131031DE92906302A0050029131031D95
:1023C000E929063022004A0291310319E929A9318D
:1023D00037212D30220048029131031DF6290130AA
:1023E00049029131031DF629A701A8012F302200CF
:1023F00048029231031D032A033049029231031D22
:10240000032A92318D2A1630220048029231031895
:10241000172A003049029231031D172A480820006C
:10242000BE0022004A082000C2009331A1232200EE
:102430004808893589354907AD00233020008500DB
:1024400022002D082000840022004A08200080007D
:102450009331552306302A0040029231031D382A59
:102460001030220048029231031D382AA83145203D
:102470001330220048029231031D482A06302A00F8
:102480004C029231031D482A0630D000A9312C217C
:102490001430220048029231031D5B2A06302A00C4
:1024A0005002923103195B2A06304C029231031D0F
:1024B0005B2A0030CC002830220048029231031DF4
:1024C000682A033049029231031D682AAD31F32591
:1024D0002F30220048029231031D7D2A003049022C
:1024E0009231031D752A9731DC2702302200490200
:1024F0009231031D7D2A98310D20043022004702BD
:102500009331031D322B2F3048029331031D052BCD
:10251000033049029331031D052B013022004A028A
:102520009231031D972A983119209331462B02309E
:1025300022004A029231031DA12A98311C209331B6
:10254000462B033022004A029231031DAB2A9831F8
:102550001F209331462B043022004A029231031D82
:10256000B52A993107219331322B053022004A02D6
:102570009231031DBF2A983122209331462B0A3015
:1025800022004A029231031DC92A98313520933125
:10259000322B0B3022004A029231031DD32A98318C
:1025A00041209331322B0C3022004A029231031D1C
:1025B000DD2A9831CD209331322B0D3022004A0292
:1025C0009231031DE72A9831EE209331322B1430DB
:1025D00022004A029231031DF12A983125209331BD
:1025E000462B153022004A029231031DFB2A9831F6
:1025F00027209331462B1E3022004A029331031DBF
:10260000052B983134209331462B47302200BE00F1
:10261000A431432420302200BE00A43143242200F0
:1026200048082000BE009531792522004908303E37
:10263000BE00A431432420302200BE00A431432434
:1026400020003E088935893522004907AD00233036
:102650002000850022002D08200084000008BA0018
:1026600097314F2708002B009331EC1C392B933105
:10267000402B09302200B9003B30BA00A631BD26FC
:102680008F31D72F9331552392317D2A2B009331EF
:10269000EC1C4C2B9331532B11302200B9003B30F2
:1026A000BA00A631BD269331322B2B009331EC1C9E
:1026B0005B2B9331622B1A302200B9003B30BA00F9
:1026C000A631BD260800A0302200AC00BF302C028D
:1026D0009331031C6E2B9331031D822B9331772B87
:1026E000BF3022002C0293310318822BAC0A233016
:1026F0002000850022002C0820008400003080008B
:102700009331702B00302200AC0015302C02933135
:10271000031C8D2B9331031DA02B9331962B153069
:1027200022002C0293310318A02BAC0A22002C08A3
:102730002000BE000030C2009331A52393318F2BBF
:1027400008002000C4179331A72B2000C413823146
:1027500062220030200042029331031DD12B9331BD
:102760004318B42B95312B2D95312C250C3020009E
:10277000BF000230C00095316D2582311F228C30A0
:102780002000BF000030C00095316D258231062247
:102790008C302000BF000130C00095316D258231A2
:1027A0001F220130200042029331031DF92B933187
:1027B000C318DC2B95312B2D95312C250C302000A6
:1027C000BF000230C00095316D25823106228C3069
:1027D0002000BF000030C00095316D2582310622F7
:1027E0008C302000BF000130C00095316D25823152
:1027F0001F220230200042029431031D4C2C9431E0
:102800004319042C95312B2D95312C252000943122
:10281000C41B0C2C9431282C220094314C18122CFF
:1028200094311D2C0C302000BF000130C0009531C8
:102830006D25823106229431262C0C302000BF00F9
:102840000130C00095316D2582311F229431312C29
:102850000C302000BF000130C00095316D25823161
:102860001F220C302000BF000230C00095316D25C2
:1028700082311F228C302000BF000030C000953113
:102880006D2582311F228C302000BF000130C00036
:1028900095316D2582311F22033020004202943190
:1028A000031D742C9431C319572C95312B2D953160
:1028B0002C250C302000BF000230C00095316D2562
:1028C00082311F228C302000BF000030C0009531C3
:1028D0006D25823106228C302000BF000130C000FF
:1028E00095316D2582310622043020004202943158
:1028F000031D9C2C9431431A7F2C95312B2D95313F
:102900002C250C302000BF000230C00095316D2511
:1029100082311F228C302000BF000030C000953172
:102920006D25823106228C302000BF000130C000AE
:1029300095316D2582310622053020004202953105
:10294000031D022D9431C31AA72C95312B2D9531DF
:102950002C2520009431C41BAF2C9431CE2C2000A8
:102960003E0889352200AD0022302000850022007B
:102970002D082000840022004C0820008000220046
:10298000AD0A22302000850022002D08200084009E
:1029900022004D08200080009431E52C893522006A
:1029A000AD0022302000850022002D082000840088
:1029B000003080002200AD0A223020008500220075
:1029C0002D08200084000030800095312C250C302B
:1029D0002000BF000230C00095316D2582311F22DA
:1029E0008C302000BF000030C00095316D25823151
:1029F0001F228C302000BF000130C00095316D25B2
:102A000082311F220630200042029531031D2A2DFB
:102A10009531431B0D2D95312B2D95312C250C30E7
:102A20002000BF000230C00095316D2582311F2289
:102A30008C302000BF000030C00095316D25823100
:102A400006228C302000BF000130C00095316D257A
:102A500082311F220800080020003E088935893590
:102A60002200AD0023302000850022002D08200028
:102A70008400420880002200AD0A23302000850037
:102A800022002D0820008400003080002200AD0AC2
:102A900023302000850022002D0820008400003013
:102AA00080002200AD0A23302000850022002D087E
:102AB0002000840000308000080020003E08893596
:102AC00089352200AD0023302000850022002D082A
:102AD000200084000008C200080020003E0889365B
:102AE00089368936BF070318C00A3E080739C10076
:102AF0000800283020003E0295310318932D3E082F
:102B00003839893689368936413E2200BE00A431E3
:102B1000432420003E080739303E2200BE00A43185
:102B2000432495319B2D20003E083F392B3E220047
:102B3000BE00A4314324080000302000B9003A0848
:102B40002C00A0006430A400AB310F232C00280817
:102B50002000B7002C002C082000BA0000303702FB
:102B600095310319B52D0130B9000030200039022C
:102B700095310319C12D303037072200BE00A43132
:102B8000432420003A082C00A0000A30A400AB31F6
:102B90000F232C0028082000B7002C002C08200050
:102BA000BA000030370295310319D82D0130B90031
:102BB00000302000390295310319E42D30303707F9
:102BC0002200BE00A4314324303020003A07220006
:102BD000BE00A4314324080020003A082C00A000C5
:102BE0000A30A400AB310F232C0028082000B700C6
:102BF0002C002C082000BA00303037072200BE001D
:102C0000A4314324303020003A072200BE00A43112
:102C10004324080000302000B9003A082C00A0002E
:102C200020003B082C00A1001030A4002730A50094
:102C3000AB3147232C0028082000B7002C002908BE
:102C40002000B8002C002C082000BA002C002D0811
:102C50002000BB000030370296310319312E0130BD
:102C6000B900003020003902963103193D2E303072
:102C700037072200BE00A431432420003A082C006C
:102C8000A00020003B082C00A100E830A400033085
:102C9000A500AB3147232C0028082000B7002C00EA
:102CA00029082000B8002C002C082000BA002C00B5
:102CB0002D082000BB000030370296310319622E28
:102CC0000130B900003020003902963103196E2E10
:102CD000303037072200BE00A431432420003A08D8
:102CE0002C00A00020003B082C00A1006430A400B0
:102CF0000030A500AB3147232C0028082000B70086
:102D00002C0029082000B8002C002C082000BA0054
:102D10002C002D082000BB0000303702963103192B
:102D2000932E0130B900003020003902963103198A
:102D30009F2E303037072200BE00A43143242000EC
:102D40003A082C00A00020003B082C00A1000A300B
:102D5000A4000030A500AB3147232C002808200038
:102D6000B7002C0029082000B8002C002C082000F7
:102D7000BA002C002D082000BB000030370296312D
:102D80000319C42E0130B9000030200039029631F9
:102D90000319D02E303037072200BE00A43143245F
:102DA000303020003A072200BE00A431432408003E
:102DB00020003A082200BE00BE0E973136272000C0
:102DC0003A082200BE0097313627080020003B0851
:102DD0002200BE00BE0E9731362720003B0822009D
:102DE000BE009731362720003A082200BE00BE0EF2
:102DF0009731362720003A082200BE009731362747
:102E0000080020003D082200BE00BE0E9731362784
:102E100020003D082200BE009731362720003C08E4
:102E20002200BE00BE0E9731362720003C0822004B
:102E3000BE009731362720003B082200BE00BE0EA0
:102E40009731362720003B082200BE0097313627F5
:102E500020003A082200BE00BE0E9731362720001F
:102E60003A082200BE009731362708000F302200B2
:102E7000BE0509303E029731031C442F0319442F2D
:102E80003730BE079731472F30302200BE04A431BF
:102E90004324080096310A26A631E226080095311F
:102EA0009C25A631E22608009631E626A631E226C8
:102EB00008009631D826A631E22608002000BA0183
:102EC000BB0147082200AD0020009731481C6A2F43
:102ED00097316F2FF03021009E009731722FF33021
:102EE00021009E00200045080935093509142100FC
:102EF0009D0000302200AC0000302C029731031CF2
:102F0000842F9731031D902F97318D2F0030220091
:102F10002C0297310318902FAC0A00009731862FAE
:102F200021009D14210097319D1C982F9731922FDD
:102F300021001B082000BA0797310318A12F9731F1
:102F4000A42F01302000BB0721001C082000BB0774
:102F5000003047029731031DAE2F08002200AD0359
:102F600000302D029731031DDA2F20009731C81C45
:102F7000BB2F9731D92F0130200047029731031C16
:102F8000D92F0319D92F3A082C00A00020003B08A4
:102F90002C00A100200047082C00A400A501AB31A3
:102FA00047232C0028082000BA002C002908200004
:102FB000BB0008009731902F2B00EC1397316C1E4B
:102FC000E32F9731F92F2B009731EC1DE92F973123
:102FD000F12F1D3020009B0010302200A6009731F9
:102FE000F72F3D3020009B0008302200A6009831CA
:102FF0000D282B009731EC1DFF2F983107287B30CF
:1030000020009B0004302200A60098310D280E30CD
:1030100020009B0020302200A6002B009831EC1AE3
:103020001328983118282B006E083F39210098008A
:1030300008008231D1220800A83106200800A731FB
:10304000A9270800A8312920080001000800200055
:103050008B01783021009900193023009B008801F2
:103060008031192808000800080031302200B9001A
:103070003B30BA00A631BD26A731752797315427BA
:10308000080073302200B9003A30BA00A631BD26DC
:10309000A7317527E0302000BA057C302200B90046
:1030A0003A30BA00233020003B029831031D6228D9
:1030B000A0303A029831031D622884302200B90002
:1030C0003A30BA00233020003B029831031D7228A9
:1030D000C0303A029831031D72288F302200B900A7
:1030E0003A30BA00233020003B029831031D822879
:1030F000C0303A029831031D82289A302200B9006C
:103100003A30BA00243020003B029831031D922847
:10311000C0303A029831031D9228A6302200B9002F
:103120003A30BA00A631BD26B2302200B9003A309A
:10313000BA00A631BD26A73175277C302200B90020
:103140003A30BA001F302000BA0501303A029831F7
:10315000031DAF28BE302200B9003A30BA00023059
:1031600020003A029831031DBA28C2302200B9006B
:103170003A30BA00033020003A029831031DC528C6
:10318000C6302200B9003A30BA00A631BD260A3056
:103190002200BE00A431432408003A302200B900C6
:1031A0003B30BA00A631BD262B0098316F18DA28C3
:1031B0009831E32831302200BE00A43143242B0093
:1031C0006F109831E82830302200BE00A43143242B
:1031D0000A302200BE00A431432408002B0098319D
:1031E0006F18F4289831FF28CA302200B9003A300D
:1031F000BA00A631BD262B006F1099310629E830A0
:103200002200B9003A30BA00A631BD2608000030CD
:103210002200AD000F302D029931031C1229993183
:10322000031D562999311B290F3022002D02993197
:1032300003185629AD0A22002D08090E2000BA00F5
:103240009631D82620302200BE00A431432400301D
:103250002200AC000F302C029931031C3229993125
:10326000031D4F2999313B290F3022002C0299313F
:1032700003184F29AC0A22002D08090E2C04B700B0
:10328000A7318827220038082000BA009631D826B6
:1032900020302200BE00A4314324993134290A3061
:1032A0002200BE00A43143249931142908008B1355
:1032B0008801200091109A01A031E520A031E5207D
:1032C000230099319E18662999317429A331F82376
:1032D00022009931BC1C6E299931742922003D08C5
:1032E00023009A002E08AD0002302A0028029931EE
:1032F0000318D7299931291B7F299931D7290430FF
:103300002A002B029931031DA72920000D0804393A
:103310009931031D8D299931922905302A00AB007E
:103320009931A729FF30260055029931031DA229A2
:10333000FF3054029931031DA22905302A00AB0049
:103340009931A72926000130D4070030D53D03303C
:103350002A002B029931031DB82920000D080439D9
:1033600099310319B5299931B82904302A00AB00E5
:1033700002302A002B029931031DC92920000D08B3
:1033800004399931031DC6299931C92903302A000E
:10339000AB0001302A002B029931031DD7290030E0
:1033A0002600D4000030D50002302A00AB002200F5
:1033B0002410A50A260825029A31031D182AA50102
:1033C000241400302000620299310319E829E20335
:1033D0002B0099316C1FEE299A31182A22000130F6
:1033E000A7070030A83D033028029A31031D182A90
:1033F000E83027029A31031D182AA701A8012B00E3
:10340000E50A2200A4173C302B0065029A31031D07
:10341000182AE501E60A3C3066029A31031D182A93
:10342000E601E70A183067029A31031D182AE701FE
:1034300022009A3124181E2A9A312A2A2300A9032D
:10344000003029029A31031D2A2A2200A415643073
:103450002300A9002B009A316C1F302A9F31B32F13
:1034600022009A312418362A9A31422A2300AB03CB
:1034700000302B029A31031D422A220024160A3002
:103480002300AB002300AA0300302A029A31031D57
:10349000512A8231BB22220026082300AA00AA3624
:1034A000AA362200B40A643034029A31031C5C2A22
:1034B00003195C2AB401B50A0530290068029A3163
:1034C000031DDF2A9A31691B672A9A316F2A22006D
:1034D0009A31241E6D2A9A316F2A9A31DF2A2700E9
:1034E0004C082300A60027004D082300A700260053
:1034F0004C082300A40026004D082300A500290045
:1035000068082300A100290069082300A2002900FF
:103510006A082300A30029006C082300A800A43136
:10352000D824230026082700CC00230027082700E2
:10353000CD00230024082600CC0023002508260007
:10354000CD0023009A31A019A72A9A31CD2A230051
:10355000A018AD2A21000C13AF2A21000C1720005F
:103560002300A01AB62A21008C13B82A21008C1738
:10357000200023002018BF2A20000C13C12A20009D
:103580000C1720002300201AC82A20008C13CA2AF6
:1035900020008C1720009A31DF2A2300A018D32A9C
:1035A00021000C13D52A21000C172000230020181D
:1035B000DC2A20000C13DE2A20000C172000053026
:1035C00029006C029B31031D602B9A316D1BEA2A86
:1035D0009A31F22A22009A31241EF02A9A31F22AD4
:1035E0009B31602B27004E082300A60027004F08C0
:1035F0002300A70026004E082300A40026004F0841
:103600002300A50029006C082300A10029006D08F3
:103610002300A20029006E082300A3000030A800A8
:10362000A431D824230026082700CE002300270831
:103630002700CF00230024082600CE002300250801
:103640002600CF0023009B31A019282B9B314E2B45
:103650002300A0182E2B21008C13302B21008C1757
:1036600020002300A01A372B21000010392B210045
:103670000014200023002018402B20008C13422B24
:1036800020008C1720002300201A492B2000001056
:103690004B2B2000001420009B31602B2300A0182E
:1036A000542B21008C13562B21008C172000230053
:1036B00020185D2B20008C135F2B20008C1720001E
:1036C00005302A0020029B31031DE32B9B31211B77
:1036D0006B2B9B31732B22009B31241E712B9B3152
:1036E000732B9B31E32B270050082300A6002700F3
:1036F00051082300A700260050082300A40026003C
:1037000051082300A5002A0020082300A1002A0058
:1037100021082300A2002A0022082300A3002A0077
:1037200024082300A800A431D82423002608270059
:10373000D000230027082700D100230024082600FA
:10374000D000230025082600D10023009B31A019BA
:10375000AB2B9B31D12B2300A018B12B21000D10D6
:10376000B32B21000D1420002300A01ABA2B210036
:103770008D10BC2B21008D14200023002018C32B9A
:1037800020000D10C52B20000D1420002300201A4E
:10379000CC2B20008D10CE2B20008D1420009B31CF
:1037A000E32B2300A018D72B21000D10D92B2100CB
:1037B0000D14200023002018E02B20000D10E22B18
:1037C00020000D14200005302A0024029C31031D26
:1037D000642C9B31251BEE2B9B31F62B22009B3159
:1037E000241EF42B9B31F62B9C31642C27005208AD
:1037F0002300A600270053082300A7002600520834
:103800002300A400260053082300A5002A00240852
:103810002300A1002A0025082300A2002A00260870
:103820002300A3000030A800A431D82423002608D8
:103830002700D200230027082700D30023002408F4
:103840002600D200230025082600D30023009C3147
:10385000A0192C2C9C31522C2300A018322C2100B2
:103860008D10342C21008D1420002300A01A3B2C35
:10387000210000103D2C21000014200023002018FE
:10388000442C20008D10462C20008D142000230095
:10389000201A4D2C200000104F2C20000014200076
:1038A0009C31642C2300A018582C21008D105A2C18
:1038B00021008D14200023002018612C20008D1081
:1038C000632C20008D14200005302A0038029C3122
:1038D000031DE72C9C31391B6F2C9C31772C220067
:1038E0009C31241E752C9C31772C9C31E72C2700B1
:1038F0005C082300A60027005D082300A70026001F
:103900005C082300A40026005D082300A5002A000F
:1039100038082300A1002A0039082300A2002A0049
:103920003A082300A3002A003C082300A800A43181
:10393000D824230026082700DC00230027082700BE
:10394000DD00230024082600DC00230025082600D3
:10395000DD0023009C31A019AF2C9C31D52C230015
:10396000A018B52C21000D13B72C21000D17200035
:103970002300A01ABE2C21008D13C02C21008D170E
:10398000200023002018C72C20000D13C92C200074
:103990000D1720002300201AD02C20008D13D22CCC
:1039A00020008D1720009C31E72C2300A018DB2C71
:1039B00021000D13DD2C21000D17200023002018FD
:1039C000E42C20000D13E62C20000D1720000530FC
:1039D0002A003C029D31031D682D9C313D1BF22CB9
:1039E0009C31FA2C22009C31241EF82C9C31FA2C9C
:1039F0009D31682D27005E082300A60027005F0880
:103A00002300A70026005E082300A40026005F080C
:103A10002300A5002A003C082300A1002A003D083D
:103A20002300A2002A003E082300A3000030A800C3
:103A3000A431D824230026082700DE00230027080D
:103A40002700DF00230024082600DE0023002508CD
:103A50002600DF0023009D31A019302D9D31562D09
:103A60002300A018362D21008D13382D21008D172D
:103A700020002300A01A3F2D21000010412D21001D
:103A80000014200023002018482D20008D134A2DFB
:103A900020008D1720002300201A512D2000001037
:103AA000532D2000001420009D31682D2300A01804
:103AB0005C2D21008D135E2D21008D172000230029
:103AC0002018652D20008D13672D20008D172000F4
:103AD00005302A0044029D31031DEB2D9D31451B0D
:103AE000732D9D317B2D22009D31241E792D9D311A
:103AF0007B2D9D31EB2D270062082300A6002700B7
:103B000063082300A700260062082300A400260003
:103B100063082300A5002A0044082300A1002A000E
:103B200045082300A2002A0046082300A3002A001B
:103B300048082300A800A431D82423002608270021
:103B4000E200230027082700E300230024082600C2
:103B5000E200230025082600E30023009D31A01980
:103B6000B32D9D31D92D2300A018B92D21008E1021
:103B7000BB2D21008E1420002300A01AC22D21008D
:103B80000E11C42D21000E15200023002018CB2D6E
:103B900020008E10CD2D20008E1420002300201A2E
:103BA000D42D20000E11D62D20000E1520009D31A1
:103BB000EB2D2300A018DF2D21008E10E12D210018
:103BC0008E14200023002018E82D20008E10EA2DEE
:103BD00020008E14200005302A0048029E31031D6B
:103BE0006C2E9D31491BF62D9D31FE2D22009D31FD
:103BF000241EFC2D9D31FE2D9E316C2E2700640865
:103C00002300A600270065082300A70026006408FB
:103C10002300A400260065082300A5002A00480808
:103C20002300A1002A0049082300A2002A004A0814
:103C30002300A3000030A800A431D82423002608C4
:103C40002700E400230027082700E50023002408BC
:103C50002600E400230025082600E50023009E310D
:103C6000A019342E9E315A2E2300A0183A2E21007E
:103C70000E113C2E21000E1520002300A01A432E09
:103C800021000010452E21000014200023002018E0
:103C90004C2E20000E114E2E20000E152000230069
:103CA000201A552E20000010572E2000001420004E
:103CB0009E316C2E2300A018602E21000E11622E62
:103CC00021000E15200023002018692E20000E115F
:103CD0006B2E20000E152000220024129E314F185A
:103CE000732E9E31A62E22009E312418792E9E31ED
:103CF000A62E003022005B029E31031D9F2E003055
:103D00005A029E31031D9F2E003059029E31031D21
:103D10009F2E003058029E31031D9F2E9E31CF1BD7
:103D2000932E9E31952E22004F152200CF175C084E
:103D3000D8005D08D9005E08DA005F08DB002200C9
:103D40000130D8020030D93BDA3BDB3B06302A0099
:103D500040029F31031D2F2F9E314118B12E9F31FC
:103D60002F2F22009E312418B72E9F312F2F013084
:103D70002C00B80220009E31031CC02E9E31C32EA1
:103D800001302C00B90220009E31031CC92E9E3147
:103D9000CC2E01302C00BA0220009E31031CD22E02
:103DA0009E31D52E01302C00BB0200302C00B90210
:103DB00020009E31031CDE2E9E31E12E01302C00AE
:103DC000BA0220009E31031CE72E9E31EA2E0130FC
:103DD0002C00BB0200302C00BA0220009E31031CD4
:103DE000F32E9E31F62E01302C00BB0200302C0049
:103DF000BB0200303B029F31031D2F2F00303A02DF
:103E00009F31031D2F2F003039029F31031D2F2FAB
:103E1000003038029F31031D2F2F20001810160884
:103E20002600E000200017082600E10027006014AB
:103E30002A009F31411F1E2F9F31242F2000960101
:103E4000970118149F31262F2A0041102C003C089E
:103E5000B8003D08B9003E08BA003F08BB00220088
:103E60009F312418352F9F317F2F073022006D029C
:103E70009F31031C3E2F9F31031D4E2F0730220020
:103E80006D029F31031C492FD1306C029F31031802
:103E90004E2F22000130EC070030ED3D07302200AC
:103EA0006D029F31031D5A2FD0306C029F31031DCC
:103EB0005A2FA414EA3022006F029F31031C632F93
:103EC0009F31031D732FEA3022006F029F31031CC4
:103ED0006E2F61306E029F310318732F2200013064
:103EE000EE070030EF3DEA3022006F029F31031DE4
:103EF0007F2F60306E029F31031D7F2F24152B0012
:103F00009F31EC1E852F9F31A72F2B006E081F3984
:103F10002000D907203059029F31031C9E2F2030EA
:103F20005902D9002B006E0889378937893709363D
:103F30000936090A210098009F31A72F2B006E082F
:103F400089378937893709360936210098002000DA
:103F50009F319118AD2F9F31AF2F2B006F14200090
:103F600091108B1709000530290068029F31031D4D
:103F7000D92F26004C082700CC0720009F310318BA
:103F8000C32F9F31C62F01302700CD0726004D08D3
:103F90002700CD079F314D19CF2F9F31D72F2000FC
:103FA0000C1727004D08403CCD009F31D92F200031
:103FB0000C13053029006C029F31031DFF2F2600D2
:103FC0004E082700CE0720009F310318E92F9F31AC
:103FD000EC2F01302700CF0726004F082700CF071E
:103FE0009F314F19F52F9F31FD2F20008C1727008F
:103FF0004F08403CCF009F31FF2F20008C1305302D
:104000002A002002A031031D252826005008270081
:10401000D0072000A03103180F28A031122801304A
:104020002700D107260051082700D107A0315119D8
:104030001B28A031232820000D1427005108403CE4
:10404000D100A031252820000D1005302A002402BF
:10405000A031031D4B28260052082700D20720005C
:10406000A03103183528A031382801302700D307A4
:10407000260053082700D307A03153194128A03147
:10408000492820008D1427005308403CD300A0315C
:104090004B2820008D1005302A003802A031031D66
:1040A000712826005C082700DC072000A0310318D7
:1040B0005B28A0315E2801302700DD0726005D085F
:1040C0002700DD07A0315D196728A0316F28200087
:1040D0000D1727005D08403CDD00A031712820004D
:1040E0000D1305302A003C02A031031D972826003D
:1040F0005E082700DE072000A03103188128A031C8
:10410000842801302700DF0726005F082700DF072B
:10411000A0315F198D28A031952820008D17270028
:104120005F08403CDF00A031972820008D13053048
:104130002A004402A031031DBD2826006208270082
:10414000E2072000A0310318A728A031AA280130D7
:104150002700E307260063082700E307A03163195F
:10416000B328A031BB2820008E1427006308403CF0
:10417000E300A031BD2820008E1005302A0048023F
:10418000A031031DE328260064082700E40720006F
:10419000A0310318CD28A031D02801302700E50731
:1041A000260065082700E507A0316519D928A03148
:1041B000E12820000E1527006508403CE500A031ED
:1041C000E32820000E119F31A72F2200331020007A
:1041D000A031911AED28A031F528220033142300D4
:1041E00019082200C300A13109292300A0311D199B
:1041F000FB28A1310129230019082200C300A131A5
:1042000009292300A1319D180729A131092923007B
:104210001D122200A13133180F29A1311129A43117
:10422000B624080004302A002002A131031D5729BA
:10423000200015082A00A30022082302A131031838
:104240003D292700D00A90305002A131031D3129A9
:1042500001302600D000D10103302700D100A0306A
:10426000D000A03027005002A131031C3B290319C4
:104270003B29A030D000A13155292700D003903030
:104280005002A131031D4D2900302600D000D1017C
:1042900002302700D1007030D0007030270050026B
:1042A000A131031855297030D00020009501043049
:1042B0002A002402A131031D672925080C390C3A74
:1042C000813820009E0001309F00A1316A29003012
:1042D00020009E0001302200B600080004302A00B1
:1042E0002402A131031DB329200015082A00A700CC
:1042F00026082702A131031899292700D20A9030F5
:104300005202A131031D8D2901302600D200D301B4
:1043100003302700D300A030D200A0302700520283
:10432000A131031C972903199729A030D200A1318C
:10433000B1292700D20390305202A131031DA929CF
:1043400000302600D200D30102302700D3007030A5
:10435000D200703027005202A1310318B129703009
:10436000D2002000950104302A002802A131031D4B
:10437000C32929080C390C3A813820009E000230EC
:104380009F00A131C629003020009E00023022008B
:10439000B600080004302A002802A231031D0F2AAB
:1043A000200015082A00AB002A082B02A1310318AF
:1043B000F5292700D40A90305402A131031DE929C0
:1043C00001302600D400D50103302700D500A030ED
:1043D000D400A03027005402A131031CF329031993
:1043E000F329A030D400A2310D2A2700D403903045
:1043F0005402A231031D052A00302600D400D50145
:1044000002302700D5007030D400703027005402ED
:10441000A23103180D2A7030D40020009501043019
:104420002A002C02A231031D1F2A2D080C390C3A38
:10443000813820009E0003309F00A231222A0030E4
:1044400020009E0003302200B600080004302A003D
:104450002C02A231031D6B2A200015082A00AF0090
:104460002E082F02A2310318512A2700D60A9030B5
:104470005602A231031D452A01302600D600D7017D
:1044800003302700D700A030D600A0302700560206
:10449000A231031C4F2A03194F2AA030D600A231A3
:1044A000692A2700D60390305602A231031D612AE3
:1044B00000302600D600D70102302700D700703028
:1044C000D600703027005602A2310318692A7030D6
:1044D000D6002000950104302A003002A231031DCD
:1044E0007B2A31080C390C3A813820009E000430B8
:1044F0009F00A2317E2A003020009E00043022005E
:10450000B600080004302A003002A231031DC72A79
:10451000200015082A00B30032083302A231031824
:10452000AD2A2700D80A90305802A231031DA12AD3
:1045300001302600D800D90103302700D900A0306F
:10454000D800A03027005802A231031CAB2A03195F
:10455000AB2AA030D800A231C52A2700D80390305A
:104560005802A231031DBD2A00302600D800D9010F
:1045700002302700D9007030D80070302700580270
:10458000A2310318C52A7030D800200095010430EC
:104590002A003402A231031DD72A35080C390C3AFF
:1045A000813820009E0005309F00A231DA2A0030B9
:1045B00020009E0005302200B600080004302A00CA
:1045C0003402A331031D232B200015082A00B70055
:1045D00036083702A3310318092B2700DA0A903076
:1045E0005A02A231031DFD2A01302600DA00DB0148
:1045F00003302700DB00A030DA00A03027005A0289
:10460000A331031C072B0319072BA030DA00A331B9
:10461000212B2700DA0390305A02A331031D192BF6
:1046200000302600DA00DB0102302700DB007030AA
:10463000DA00703027005A02A3310318212B7030A2
:10464000DA0020009501043029006002A331031D27
:10465000332B61080C390C3A813820009E0006305B
:104660009F00A331362B003020009E000630220030
:10467000B6000800043029006002A331031D7F2B1F
:10468000200015082900E30062086302A331031823
:10469000652B2700C80A90304802A331031D592B0F
:1046A00001302600C800C90103302700C900A0302E
:1046B000C800A03027004802A331031C632B031954
:1046C000632BA030C800A3317D2B2700C803903096
:1046D0004802A331031D752B00302600C800C90114
:1046E00002302700C9007030C8007030270048022F
:1046F000A33103187D2B7030C800200095010430D1
:1047000029006402A331031D8F2B65080C390C3A74
:10471000813820009E0007309F00A331922B00308B
:1047200020009E0007302200B60008000430290057
:104730006402A331031DDB2B200015082900E700CC
:1047400066086702A3310318C12B2700CA0A9030FC
:104750004A02A331031DB52B01302600CA00CB014C
:1047600003302700CB00A030CA00A03027004A0247
:10477000A331031CBF2B0319BF2BA030CA00A331E8
:10478000D92B2700CA0390304A02A331031DD12B35
:1047900000302600CA00CB0102302700CB00703069
:1047A000CA00703027004A02A3310318D92B703099
:1047B000CA002000950104302A002002A331031D05
:1047C000EB2B21080C390C3A813820009E00003078
:1047D0009F00A331EE2B003020009E00003022000D
:1047E000B6000800A0302200BF00A030C0000800C2
:1047F000220040083F02A431031D012CBC14A43147
:10480000142C22003F0820008400850100082200AB
:10481000BD00BC10BF0AEF303F02A431031C142CB2
:104820000319142CA030BF000800220040083F02EA
:10483000A4310319152C3F082000840085010008CD
:104840002200BD00BC10BF0AEF303F02A431031CA0
:104850002D2C03192D2CA030BF0008002200400889
:1048600020008400850122003E08200080002200F4
:10487000C00AEF304002A431031C422C0319422C21
:10488000A030C00008002200400AC100EF30410201
:10489000A431031C4F2C03194F2CA030C10022005F
:1048A0003F084102A431031D582C0000A4314F2CB5
:1048B0002200400820008400850122003E082000DC
:1048C000800022004108C000080049302200C400D6
:1048D0004930C5000800220045084402A431031DE8
:1048E000742C3C15A431872C22004408200084003D
:1048F000850100082200C2003C11C40A583044025D
:10490000A431031C872C0319872C4930C4000800EC
:10491000220045084402A4310319882C44082000D1
:104920008400850100082200C2003C11C40A5830EE
:104930004402A431031CA02C0319A02C4930C4004C
:104940000800220045082000840085012200430859
:10495000200080002200C50A58304502A431031C03
:10496000B52C0319B52C4930C50008002200450AB2
:10497000C60058304602A431031CC22C0319C22CB5
:104980004930C600220044084602A431031DCB2C46
:104990000800A431C22C22004508200084008501B3
:1049A000220043082000800022004608C5000800BD
:1049B0002000DA012300A431A21EE02CA531132D22
:1049C0002300A431221EE62CA431F82C2200340846
:1049D00023002402A431031CF02CA431031DF42C69
:1049E00020005A10A431F62C20005A14A531112DA4
:1049F0002300A60A23082602A531031C022D031951
:104A0000022DA601230026082402A531031C0B2D2C
:104A1000A531031D0F2D20005A10A531112D2000A6
:104A20005A14A531662D2300A531221E192DA5315A
:104A30003A2D23002408A6072000A5310318222DB3
:104A4000A531252D01302300A707230025087F3934
:104A5000A707A531271B2E2DA531362D20005A146E
:104A600023002708C03EA700A531382D20005A108A
:104A7000A531662D2300A635A70DA531A71F422D10
:104A8000A531502D2300A531271F482DA5314C2DD0
:104A900023002614A5314E2D23002610A5315C2DB0
:104AA0002300A531271F562DA5315A2D230026108E
:104AB000A5315C2D23002614230026088913013E0E
:104AC0002402200003185A14031C5A102300A001CA
:104AD000230022186E2D2000DA10702D2000DA1429
:104AE00020002300A218772D20005A11792D2000D4
:104AF0005A152000063023002802A631031D6E2E11
:104B0000A015A531A51F862DA531FA2D2000A531B0
:104B10005A1D8C2DA5319C2D2000A531DA1C922D1B
:104B2000A531972D23002012A012A531AA2D230014
:104B30002016A012A531AA2D2000A531DA1CA22D25
:104B4000A531A62D2300A016A531AA2D2300A0165D
:104B5000A531AA2D2000A5315A1DB02DA531D62D85
:104B60002000A531DA1CB62DA531C62D2000A531B7
:104B70005A1CBC2DA531C12D23002010A010A53139
:104B8000F82D23002014A010A531F82D2000A53108
:104B90005A1CCC2DA531D12D23002014A010A531F5
:104BA000F82D23002010A010A531F82D2000A531EC
:104BB000DA1CDC2DA531EB2D2000A5315A1CE22D8D
:104BC000A531E62D2300A014A531F82D23002014D3
:104BD000A010A531F82D2000A5315A1CF12DA531CA
:104BE000F52D2300A014A531F82D23002010A010CE
:104BF000A6316C2E2000A6315A1D002EA631102E93
:104C00002000A631DA1C062EA6310B2E2300201020
:104C1000A010A6311E2E23002014A010A6311E2E97
:104C20002000A631DA1C162EA6311A2E2300A0145D
:104C3000A6311E2E2300A014A6311E2E2000A63160
:104C40005A1D242EA6314A2E2000A631DA1C2A2E07
:104C5000A6313A2E2000A6315A1C302EA631352E10
:104C600023002012A012A6316C2E23002016A012C1
:104C7000A6316C2E2000A6315A1C402EA631452E9E
:104C800023002016A012A6316C2E23002012A012A1
:104C9000A6316C2E2000A631DA1C502EA6315F2ED4
:104CA0002000A6315A1C562EA6315A2E2300A016DB
:104CB000A6316C2E23002016A012A6316C2E2000E7
:104CC000A6315A1C652EA631692E2300A016A631E6
:104CD0006C2E23002012A012A631BC2E2000A6317B
:104CE0005A1D742EA6319A2E2000A631DA1C7A2E77
:104CF000A6318A2E2000A6315A1C802EA631852E80
:104D000023002010A010A631BC2E23002014A010D8
:104D1000A631BC2E2000A6315A1C902EA631952E0D
:104D200023002014A010A631BC2E23002010A010B8
:104D3000A631BC2E2000A631DA1CA02EA631AF2E43
:104D40002000A6315A1CA62EA631AA2E2300A0149C
:104D5000A631BC2E23002014A010A631BC2E2000AA
:104D6000A6315A1CB52EA631B92E2300A014A631A7
:104D7000BC2E23002010A010080022003A082000BA
:104D800085008517220039082000840000082200D1
:104D9000BB0000303B02A631031DCF2E08002200CD
:104DA0003B08BE00A43143242200B90A0319BA0A01
:104DB000A631BD2E22003A0820008A0022003908C0
:104DC000200082000A302200BE00A43143240800E3
:104DD00020302200BE00A431432408002000C70177
:104DE00022004808F839AD00AD35AD35AD0A2330A5
:104DF0002000850022002D08200084000008C80043
:104E0000A731481A052FA731072F20004714043077
:104E100020004807C800A731481A102FA731122FC9
:104E20002000C714043020004807C800A731481AE2
:104E30001B2FA7311D2F20004715043020004807E5
:104E4000C800A731481A262FA731282F2000C715E0
:104E5000043020004807C800A731481A312FA73175
:104E6000332F20004716043020004807C800A73120
:104E7000481A3C2FA7313E2F2000C71604302000CF
:104E80004807C800A731481A472FA731492F2000EB
:104E90004717043020004807C800A731481A522F8E
:104EA000A731542F2000C7170C302000BF0000305E
:104EB000C00095316D252000400887003F0886001E
:104EC0000108BA0022004A0820004705BA040C3045
:104ED000BF000030C00095316D25200040088700DC
:104EE0003F0886003A088100080023000630910040
:104EF0000030920015178B131514000000008B175B
:104F000013082000BA00230014082000BB0008008A
:104F10002200370823009100151395131514130868
:104F20002200B80008002200370823009100220068
:104F30003808230093001513951315158B1355305E
:104F40009600AA30960095148B1715119518A52F69
:104F5000080000302200B700BF303702A731031C21
:104F6000B42FA731031DCC2FA731BD2FBF30220096
:104F70003702A7310318CC2FB70AA731882723306F
:104F80002000850022003708200084002200380815
:104F900020008000A731B62F080000302200B700A3
:104FA00058303702A731031CD82FA731031DFA2F21
:104FB000A731E12F583022003702A7310318FA2F0A
:104FC000B70AA731882703302200C7003708C80076
:104FD000C901C836C90CC836C90CC90EC936C9368C
:104FE0003808CA00CB0103302000A6008F315127BA
:104FF000A731DA2F2B00A83150190028A831052835
:1050000003302200CA00AD31F32508000030220031
:10501000B700BF303702A831031C1128A831031D87
:105020002828A8311A28BF3022003702A8310318D7
:105030002828B70A233020008500220037082000E6
:10504000840000082200B800A7319327A831132854
:10505000080000302200B700BF303702A831031C1F
:105060003428A831031D4428A8313D28BF30220030
:105070003702A83103184428B70AFF302200B800CD
:10508000A7319327A831362808002A00A831C11D6E
:105090004B28A83189282A00A831411D5128A83160
:1050A0006D282A00A831C11C5728A8316228013078
:1050B0002C00BC000030BD000030BE000030BF003E
:1050C000A8316B280A302C00BC000030BD00003035
:1050D000BE000030BF00A83187282A00A831C11CBB
:1050E0007328A8317E2864302C00BC000030BD003D
:1050F0000030BE000030BF00A8318728E8302C0007
:10510000BC000330BD000030BE000030BF00A8313D
:10511000C5282A00A831411D8F28A831AB282A00B4
:10512000A831C11C9528A831A02810302C00BC0043
:105130002730BD000030BE000030BF00A831A928D4
:1051400060302C00BC00EA30BD000030BE000030F2
:10515000BF00A831C5282A00A831C11CB128A83138
:10516000BC28C0302C00BC002730BD000930BE0078
:105170000030BF00A831C52880302C00BC00EE30C4
:10518000BD003630BE000030BF0020001810960170
:10519000970199132A00410830398138200098007E
:1051A0002C003C08B8003D08B9003E08BA003F0892
:1051B000BB002700601008002A00A831411CE2282B
:1051C000A93100292A00A831411FE828A831F12877
:1051D000200018101608BA001708BB001814A831D0
:1051E000FE2820001708BC001608BA001708BB00EC
:1051F0003B083C02A8310319FE28BA01A93108294D
:10520000260060082000BA00260061082000BB00CC
:105210002000BC01BD01A931201C1029A9312B2976
:1052200052302200BE00A431432420302200BE00B0
:10523000A431432443302200BE00A4314324303043
:105240002200BE00A431432420302200BE00A4313D
:10525000432497314A27080021008E150E1624009A
:1052600094172830950097154F30920008002400BD
:105270009501080000302000E0000030E10020002F
:105280000130E0070030E13D07306102A931031C25
:105290005F2907306102A931031C5129A931031D7F
:1052A0005729403020006002A931031C5F292000EB
:1052B00091119211A9313721A9312C210800200028
:1052C000A93191196529A9313F29200091110800C0
:1052D000003020006202A931031D682991112400C9
:1052E0001614A9313A21A03024009100A9313A21A5
:1052F00020005C0824009100A9313A2120005B08BD
:1053000024009100A9313A2120005D082400910079
:10531000A9313A2124001615A9313A21063020007E
:10532000E2000800003020006202A931031D92292A
:10533000911124001614A9313A21A03024009100C3
:10534000A9313A2120005C0824009100A9313A21BA
:1053500020005B0824009100A9313A210030200090
:10536000DF003F305F02A931031CB929A931031DB9
:10537000D329A931C2293F3020005F02A931031887
:10538000D329DF0A2000DF175F17223085005F086E
:105390008400000824009100A9313A212000DF1385
:1053A0005F13A931BB2924001615A9313A21063013
:1053B0002000E2000800003020006202A931031D35
:1053C000DB29911124001614A9313A21A0302400C0
:1053D0009100A9313A2120005C0824009100A931F4
:1053E0003A2120005B0824009100A9313A212400D1
:1053F0009614A9313A21A13024009100A9313A2113
:1054000024009615A9313A21240011082000DD005E
:10541000240096161616A9313A2124001615A93132
:105420003A210800003020006202AA31031D122A2E
:10543000911124001614A9313A21A03024009100C2
:10544000A9313A2120005C0824009100A9313A21B9
:1054500020005B0824009100A9313A212400961411
:10546000A9313A21A13024009100A9313A2100301C
:105470002000DF001E305F02AA31031C422AAA313D
:10548000031D5C2AAA314B2A1E3020005F02AA317C
:1054900003185C2ADF0A24009615A9313A2124005A
:1054A00011082000BA009631D8262400961216164C
:1054B000A9313A21AA31442A24009615A9313A216A
:1054C000240011082000BA009631D8262400961630
:1054D00016161615A9313A2108002000911108006E
:1054E00000302000DF001F305F02AA31031C7B2A3E
:1054F000AA31031D9D2AAA31842A1F3020005F0291
:10550000AA3103189D2ADF0A2000DF175F17220047
:10551000AA31CA1A8D2AAA318F2A2000DF1622301A
:10552000200085005F0884000008BA00DF12DF1346
:105530005F139631D826AA317D2A08005230220006
:10554000BE00A431432420302200BE00A4314324F5
:1055500043302200BE00A431432433302200BE0079
:10556000A431432420302200BE00A4314324220071
:10557000AA31CB1FBD2AAA31C72A22004A0820001F
:10558000BA0022004B082000BB00AA31E42A220006
:1055900062082000BA00220063082000BB00BA3570
:1055A000BB0DBA35BB0DBA35BB0DBA35BB0DBA351F
:1055B000BB0DBA35BB0DBB172200AA31CA1AE22AAD
:1055C000AA31E42A2000BA169631E62620302200BD
:1055D000BE00A431432422004A082000DB00220040
:1055E0004B082000DC00AA31DC1FF82AAA31FC2A73
:1055F000AA311222AA31FE2AAA3170220A302200D0
:10560000BE00A4314324080001302200C7002C084A
:10561000C800C901CA01CB018F31512708002C00F5
:1056200020082000E3002C0024082000E4002C00C7
:10563000AC0101302000E50008306502AB31031CED
:10564000242BAB31031D422BAB312D2B0830200016
:105650006502AB310318422BE50A2000630D2C00D4
:10566000AC0D200064082C00AC022000AB31031C00
:105670003B2BAB313E2B2C00AC0703102000E30D7D
:10568000AB31262B200063082C00A80008002C005A
:1056900020082000E3002C0021082000E4002C005A
:1056A00024082000E5002C0025082000E6002C003E
:1056B000AC01AD0101302000E70010306702AB31D2
:1056C000031C652BAB31031DA52BAB316E2B1030AA
:1056D00020006702AB310318A52BE70A2000640DF8
:1056E0002C00AC0DAD0D200066082C002D02AB3156
:1056F000031C9F2B200066082C002D02AB31031CDD
:10570000842BAB31031D8B2B200065082C002C0251
:10571000AB31031C9F2B200065082C00AC0220003D
:10572000AB31031C952BAB31982B01302C00AD0213
:10573000200066082C00AD020314AB31A02B03102F
:105740002000E30DE40DAB31672B200063082C0033
:10575000A800200064082C00A90008002C002008E4
:105760002000E3002C0021082000E4002C00220887
:105770002000E5002C0023082000E6002C0024086F
:105780002000E7002C0025082000E8002C00260857
:105790002000E9002C0027082000EA00EB01EC01C2
:1057A000ED01EE010130EF0020306F02AB31031C40
:1057B000DC2BAC31031D642CAB31E52B20302000F9
:1057C0006F02AC310318642CEF0A2000660DEB0D5C
:1057D000EC0DED0DEE0D6A086E02AC31031C5C2C75
:1057E0006A086E02AB31031CF82BAC31031D1A2C76
:1057F000200069086D02AC31031C5C2C69086D0245
:10580000AC31031C062CAC31031D1A2C2000680897
:105810006C02AC31031C5C2C68086C02AC31031CBC
:10582000142CAC31031D1A2C200067086B02AC311C
:10583000031C5C2C20006708EB02AC31031C222CFB
:10584000AC31252C01302000EC022000AC31031CCF
:105850002B2CAC312E2C01302000ED022000AC317D
:10586000031C342CAC31372C01302000EE02200018
:105870006808EC02AC31031C3F2CAC31422C0130E7
:105880002000ED022000AC31031C482CAC314B2C25
:1058900001302000EE0220006908ED02AC31031C4B
:1058A000532CAC31562C01302000EE0220006A0847
:1058B000EE020314AC315D2C03102000E30DE40D67
:1058C000E50DE60DAB31DE2B200063082C00A800AF
:1058D000200064082C00A900200065082C00AA0004
:1058E000200066082C00AB00080000302C003302BA
:1058F000AC31031D902C00303202AC31031D902CD2
:1059000000303102AC31031D902C00303002AC313C
:10591000031D902C2000BA01BB01BC01BD01080091
:105920002C00B401B501AC31B31B982CAC319A2CCE
:105930002C00B5172C00AC31331BA02CAC31A22CA1
:105940002C00B5172C00AC31B31AA82CAC31AA2C02
:105950002C0035172C00AC31331AB02CAC31B22CE2
:105960002C0035172C00AC31B319B82CAC31BA2C43
:105970002C00B5162C00AC313319C02CAC31C22C24
:105980002C00B5162C00AC31B318C82CAC31CA2C85
:105990002C0035162C00AC313318D02CAC31D22C65
:1059A0002C0035162C00AC31B21BD82CAC31DA2CC3
:1059B0002C00B5152C00AC31321BE02CAC31E22CA4
:1059C0002C00B5152C00AC31B21AE82CAC31EA2C05
:1059D0002C0035152C00AC31321AF02CAC31F22CE5
:1059E0002C0035152C00AC31B219F82CAC31FA2C46
:1059F0002C00B5142C00AD313219002DAD31022D23
:105A00002C00B5142C00AD31B218082DAD310A2D83
:105A10002C0034142C00AD313218102DAD31122D64
:105A20002C0035142C00AD31B11B182DAD311A2DC1
:105A30002C00B4172C00AD31311B202DAD31222D9F
:105A40002C00B4172C00AD31B11A282DAD312A2D00
:105A50002C0034172C00AD31311A302DAD31322DE0
:105A60002C0034172C00AD31B119382DAD313A2D41
:105A70002C00B4162C00AD313119402DAD31422D22
:105A80002C00B4162C00AD31B118482DAD314A2D83
:105A90002C0034162C00AD313118502DAD31522D63
:105AA0002C0034162C00AD31B01B582DAD315A2DC1
:105AB0002C00B4152C00AD31301B602DAD31622DA2
:105AC0002C00B4152C00AD31B01A682DAD316A2D03
:105AD0002C0034152C00AD31301A702DAD31722DE3
:105AE0002C0034152C00AD31B019782DAD317A2D44
:105AF0002C00B4142C00AD313019802DAD31822D25
:105B00002C00B4142C00341434082000BA002C00EB
:105B100035082000BB00AD319425AD319425AD3161
:105B20009425AD31942508002C003008A0003108E0
:105B3000A1003208A2003308A30020003A082C007C
:105B4000A40020003B082C00A500A601A701AB3152
:105B5000AE232000BC01BD012C0028082000BA079C
:105B6000AD310318B52DAD31B82D01302000BB0784
:105B70002000AD310318BE2DAD31C12D0130200004
:105B8000BC072000AD310318C72DAD31CA2D01303F
:105B90002000BD072C0029082000BB07AD310318E9
:105BA000D32DAD31D62D01302000BC072000AD3102
:105BB0000318DC2DAD31DF2D01302000BD072C0096
:105BC0002A082000BC07AD310318E82DAD31EB2DBC
:105BD00001302000BD072C002B082000BD07BC367B
:105BE000BB0CBA0C08002200AD314F18F92DAE31B4
:105BF000042E003022004A02AE31031D022E4F1047
:105C00002B005010AE31822E003022004A02AE31FD
:105C1000031D0B2E0800033022004A02AE31031C84
:105C2000142E0319142E080022004F104A08CE002B
:105C3000AF316E27013022006502AE31031C232EE6
:105C4000AE31031D832E013022006502AE31031CEC
:105C5000312EF8306402AE31031C312EAE31031DFB
:105C6000832E22004E08CA0001304A02AE31031DC5
:105C7000422E0030E0000030E1000030E200003051
:105C8000E300CF01023022004A02AE31031D572E3D
:105C9000CF0100306302AE31031D552E0030620289
:105CA000AE31031D552EAE315D2E2200CF150330CF
:105CB00022004A02AE31031D7E2E2200CF01BA31EE
:105CC0002B22BA315E2240302000DB02AE31031CB1
:105CD0006B2EAE316E2E01302000DC02A931DB21AB
:105CE0002000AE31DD1E762EAE31782E22004F160A
:105CF00000302200E0000030E100CF1522004F14F8
:105D00002B00501408002200CF140800003022009D
:105D1000E7000E306702AE31031C912EAE31031D39
:105D2000C12EAE319A2E0E3022006702AE3103181A
:105D3000C12EE70A22006708890E090AE90000302F
:105D4000EA000D306A02AE31031CA92EAE31031DEC
:105D5000BF2EAE31B22E0D3022006A02AE310318D2
:105D6000BF2EEA0A2200E90A213020008500220025
:105D700069082000840000308000AE31AB2EAE31C7
:105D8000932EFF302300BC00FF30BD00FF30CC005D
:105D9000FF30CD00FF30DC00FF30DD00FF30EC00D5
:105DA000FF30ED00FF302400AC00FF30AD00FF30CD
:105DB000BC00FF30BD00FF30CC00FF30CD00FF3015
:105DC000DC00FF30DD00FF30EC00FF30ED00FF3085
:105DD0002500AC00FF30AD00FF30BC00FF30BD003F
:105DE000FF30CC00FF30CD00FF30DC00FF30DD00A5
:105DF000FF30EC00FF30ED00FF302600AC00FF303C
:105E0000AD00080000302200EA000F306A02AF3116
:105E1000031C0D2FAF31031D372FAF31162F0F305D
:105E200022006A02AF310318372FEA0A22006708FE
:105E3000890EE90069086A07E90021302000850021
:105E4000220069082000840000082200EB006A0894
:105E5000F03EE90021302000850022006908200082
:105E6000840022006B0820008000AF310F2F080053
:105E700000302200EA000F306A02AF31031C432FCA
:105E8000AF31031D6D2FAF314C2F0F3022006A024E
:105E9000AF3103186D2FEA0A22006A08F03EE900CC
:105EA00021302000850022006908200084000008BD
:105EB0002200EB006708890EE90069086A07E9001B
:105EC0002130200085002200690820008400220083
:105ED0006B0820008000AF31452F08002B00EC1428
