:020000040000FA
:100400008231D92A000000009831E92820004008F4
:1004100087003F08860041080739893582070114A3
:100420000800811408000115080081150800011654
:100430000800811608000117080081170800200035
:10044000400887003F088600410807398935820740
:100450000110080081100800011108008111080036
:10046000011208008112080001130800811308001E
:100470002000400887003F08860041080739893579
:10048000893582074410011844140800441081186B
:100490004414080044100119441408004410811940
:1004A000441408004410011A441408004410811A2E
:1004B000441408004410011B441408004410811B1C
:1004C00044140800023020008A006A303E070A0007
:1004D000C30008000F340F340F340F3417341F34A7
:1004E000273467343F347F341F341F341F341F34A4
:1004F000273467344734273467344334433407346C
:1005000000340034023020008A008A303E070A009E
:10051000C50008000034013402340334803404344C
:10052000803480340C340A34083409340B340D34EC
:10053000803480348034803480348034803480341B
:1005400080348034023020008A0045080F39AB3EE9
:100550000A00BE00080000340134023403340534BC
:100560008034803480340A340B3409340C34083439
:100570000D348034803422003608073989358207EB
:10058000A0314128A0319D28A031F928A131552959
:10059000A131B129A2310D2AA231692AA231C52A7D
:1005A00082319231F5223D302B00E8000B30E9001A
:1005B00008008B13F03021009900FF308E000E13DD
:1005C00020000E1721008E170E13003023009C0010
:1005D00033309B001E119F119E161D161E129D1773
:1005E000A3312123A33194232200BC171D30200006
:1005F0009B0006309C0021009515951610302200B6
:10060000A600A501A701A801EC01ED01EE01EF0193
:10061000A401CF012000A101A0012200E201A2302B
:1006200097000030980020000B1721009114200043
:1006300091108B17BC302200B700A631B7262200DC
:100640008331B81F252B8331352B22008331381994
:100650002B2B8331312BA631D826A631FC268331B2
:10066000332B8231D1228331372B8231D1220000CA
:1006700022008331A4183E2B8331842B2200A41046
:100680000030AC0015302C028331031C4A2B83311F
:10069000031D842B8331532B153022002C02833110
:1006A0000318842BAC0A22002C0889358935AD004B
:1006B00023302000850022002D082000840000083F
:1006C0002200AE0002302E028331031D692B8331DC
:1006D0006F2B053022002E028331031D822B220056
:1006E000AD0A23302000850022002D082000840060
:1006F00000082200AE0083312E19802B8331822B1B
:10070000AA31332283314C2B2200833124198A2BC6
:100710008331D02B220024110030AC0015302C0284
:100720008331031C962B8331031DD02B83319F2BE8
:10073000153022002C0283310318D02BAC0A220082
:100740002C0889358935AD00233020008500220032
:100750002D082000840000082200AE0002302E0286
:100760008331031DB52B8331BB2B053022002E02B4
:100770008331031DCE2B2200AD0A233020008500DB
:1007800022002D082000840000082200AE008331E2
:10079000AE19CC2B8331CE2BAA3133228331982B47
:1007A0002B0083315018D62B8331E22B220083316A
:1007B000CF1BDC2B8331E02B2200CF13B3310E2370
:1007C0008C314D2C04302A0020028431031D492C29
:1007D00027008331D118EE2B8431492C2700D1100A
:1007E0008331511CF52B8431202C2A008331A11830
:1007F000FB2B84311E2C52302200BE00A331722309
:1008000020302200BE00A331722342302200BE00FD
:10081000A331722330302200BE00A3317223203076
:100820002200BE00A331722330302200BE00A3316B
:1008300072230A302200BE00A33172238431492C76
:100840002A0084312118262C8431492C5230220070
:10085000BE00A331722320302200BE00A3317223D8
:1008600042302200BE00A331722330302200BE008D
:10087000A331722320302200BE00A3317223313015
:100880002200BE00A33172230A302200BE00A33131
:10089000722304302A0024028431031DB02C270067
:1008A0008431D318552C8431B02C2700D3108431D7
:1008B000531C5C2C8431872C2A008431A518622CAF
:1008C0008431852C52302200BE00A33172232030A7
:1008D0002200BE00A331722342302200BE00A331A9
:1008E000722331302200BE00A33172232030220057
:1008F000BE00A331722330302200BE00A331722328
:100900000A302200BE00A33172238431B02C2A00A9
:10091000843125188D2C8431B02C52302200BE0039
:10092000A331722320302200BE00A3317223423053
:100930002200BE00A331722331302200BE00A33159
:10094000722320302200BE00A331722331302200F6
:10095000BE00A33172230A302200BE00A3317223ED
:1009600004302A0028028531031D172D2700843109
:10097000D518BC2C8531172D2700D5108431551C76
:10098000C32C8431EE2C2A008431A918C92C84315F
:10099000EC2C52302200BE00A33172232030220002
:1009A000BE00A331722342302200BE00A331722365
:1009B00032302200BE00A331722320302200BE005C
:1009C000A331722330302200BE00A33172230A30DB
:1009D0002200BE00A33172238531172D2A008431F5
:1009E0002918F42C8531172D52302200BE00A33176
:1009F000722320302200BE00A33172234230220035
:100A0000BE00A331722332302200BE00A331722314
:100A100020302200BE00A331722331302200BE00FC
:100A2000A33172230A302200BE00A33172230430A6
:100A30002A002C028531031D7E2D27008531D71811
:100A4000232D85317E2D2700D7108531571C2A2D67
:100A50008531552D2A008531AD18302D8531532D26
:100A600052302200BE00A331722320302200BE008B
:100A7000A331722342302200BE00A33172233330EF
:100A80002200BE00A331722320302200BE00A33119
:100A9000722330302200BE00A33172230A302200BC
:100AA000BE00A331722385317E2D2A0085312D1899
:100AB0005B2D85317E2D52302200BE00A331722382
:100AC00020302200BE00A331722342302200BE003B
:100AD000A331722333302200BE00A33172232030B1
:100AE0002200BE00A331722331302200BE00A331A8
:100AF00072230A302200BE00A331722304302A0080
:100B000030028531031DE52D27008531D9188A2D46
:100B10008531E52D2700D9108531591C912D85315E
:100B2000BC2D2A008531B118972D8531BA2D523050
:100B30002200BE00A331722320302200BE00A33168
:100B4000722342302200BE00A331722334302200CF
:100B5000BE00A331722320302200BE00A3317223D5
:100B600030302200BE00A33172230A302200BE00C2
:100B7000A33172238531E52D2A0085313118C22D2C
:100B80008531E52D52302200BE00A3317223203082
:100B90002200BE00A331722342302200BE00A331E6
:100BA000722334302200BE00A33172232030220091
:100BB000BE00A331722331302200BE00A331722364
:100BC0000A302200BE00A331722304302A0034020E
:100BD0008631031D4C2E27008531DB18F12D86311F
:100BE0004C2E2700DB1085315B1CF82D8631232E1F
:100BF0002A008531B518FE2D8631212E5230220073
:100C0000BE00A331722320302200BE00A331722324
:100C100042302200BE00A331722335302200BE00D4
:100C2000A331722320302200BE00A3317223303062
:100C30002200BE00A33172230A302200BE00A3317D
:100C4000722386314C2E2A0086313518292E8631A2
:100C50004C2E52302200BE00A331722320302200DD
:100C6000BE00A331722342302200BE00A3317223A2
:100C700035302200BE00A331722320302200BE0096
:100C8000A331722331302200BE00A33172230A3017
:100C90002200BE00A331722304302A0030028631C4
:100CA000031DB32E27008631C918582E8631B32E66
:100CB0002700C9108631491C5F2E86318A2E2A00F2
:100CC0008631B118652E8631882E52302200BE0042
:100CD000A331722320302200BE00A33172234130A1
:100CE0002200BE00A331722334302200BE00A331A3
:100CF000722320302200BE00A33172233030220044
:100D0000BE00A33172230A302200BE00A331722339
:100D10008631B32E2A0086313118902E8631B32EBB
:100D200052302200BE00A331722320302200BE00C8
:100D3000A331722341302200BE00A331722334302C
:100D40002200BE00A331722320302200BE00A33156
:100D5000722331302200BE00A33172230A302200F8
:100D6000BE00A331722304302A0034028731031DF0
:100D70001A2F27008631CB18BF2E87311A2F270054
:100D8000CB1086314B1CC62E8631F12E2A008631BF
:100D9000B518CC2E8631EF2E52302200BE00A33182
:100DA000722320302200BE00A33172234130220082
:100DB000BE00A331722335302200BE00A33172235E
:100DC00020302200BE00A331722330302200BE004A
:100DD000A33172230A302200BE00A331722387316F
:100DE0001A2F2A0086313518F72E87311A2F5230E4
:100DF0002200BE00A331722320302200BE00A331A6
:100E0000722341302200BE00A3317223353022000C
:100E1000BE00A331722320302200BE00A331722312
:100E200031302200BE00A33172230A302200BE00FE
:100E3000A331722322008731A419202F883114286E
:100E40000330290050028731031D362F8731511B93
:100E50002B2F8731362F02302200C7000030C80008
:100E6000C90102302000A6008E31FE260330290081
:100E700054028731031D4C2F8731551B412F873179
:100E80004C2F02302200C7000130C800C9010230D7
:100E90002000A6008E31FE2603302900580287313B
:100EA000031D622F8731591B572F8731622F023064
:100EB0002200C7000230C800C90102302000A6008D
:100EC0008E31FE26033029005C028731031D782F06
:100ED00087315D1B6D2F8731782F02302200C700CC
:100EE0000330C800C90102302000A6008E31FE2662
:100EF0000330290064028731031D8E2F8731651B63
:100F0000832F87318E2F02302200C7000530C800A2
:100F1000C90102302000A6008E31FE2603302A00CF
:100F200020028731031DA42F8731211B992F873180
:100F3000A42F02302200C7000830C800C9010230C7
:100F40002000A6008E31FE2603302A0024028731BD
:100F5000031DBA2F8731251BAF2F8731BA2F0230DF
:100F60002200C7000930C800C90102302000A600D5
:100F70008E31FE2603302A0028028731031DD02F30
:100F80008731291BC52F8731D02F02302200C7009F
:100F90000A30C800C90102302000A6008E31FE26AA
:100FA00003302A002C028731031DE62F87312D1BC9
:100FB000DB2F8731E62F02302200C7000B30C8003C
:100FC000C90102302000A6008E31FE2603302A001F
:100FD00030028731031DFC2F8731311BF12F873100
:100FE000FC2F02302200C7000C30C800C9010230BB
:100FF0002000A6008E31FE2603302A0034028831FC
:10100000031D12288831351B072888311228023029
:101010002200C7000D30C800C90102302000A60020
:101020008E31FE262200A41100302900680288318A
:10103000031D1C28883122280130290068028831CC
:10104000031D8C28200088310C1F282888315B283C
:1010500029008831E9182E2888315728270088313F
:101060004C1834288831572852302200BE00A33152
:10107000722320302200BE00A331722341302200AF
:10108000BE00A331722336302200BE00A33172238A
:1010900020302200BE00A331722330302200BE0077
:1010A000A33172230A302200BE00A331722327002D
:1010B0004C1088318C2829008831691861288831C2
:1010C0008A28270088314C1C672888318A285230AA
:1010D0002200BE00A331722320302200BE00A331C3
:1010E000722341302200BE00A33172233630220029
:1010F000BE00A331722320302200BE00A331722330
:1011000031302200BE00A33172230A302200BE001B
:10111000A331722327004C14003029006C0288315F
:10112000031D942888319A28013029006C028931E6
:10113000031D0429200088318C1FA0288831D32862
:1011400029008831ED18A6288831CF28270088315A
:101150004E18AC288831CF2852302200BE00A3316F
:10116000722320302200BE00A331722341302200BE
:10117000BE00A331722337302200BE00A331722398
:1011800020302200BE00A331722330302200BE0086
:10119000A33172230A302200BE00A331722327003C
:1011A0004E1089310429290088316D18D9288931D8
:1011B0000229270088314E1CDF288931022952304C
:1011C0002200BE00A331722320302200BE00A331D2
:1011D000722341302200BE00A33172233730220037
:1011E000BE00A331722320302200BE00A33172233F
:1011F00031302200BE00A33172230A302200BE002B
:10120000A331722327004E1400302A0030028931A6
:10121000031D0C298931122901302A00300289313D
:10122000031D7C29200089310D1E182989314B2985
:101230002A008931B1181E298931472927008931AF
:10124000581824298931472952302200BE00A33181
:10125000722320302200BE00A331722342302200CC
:10126000BE00A331722334302200BE00A3317223AA
:1012700020302200BE00A331722330302200BE0095
:10128000A33172230A302200BE00A331722327004B
:10129000581089317C292A00893131185129893126
:1012A0007A2927008931581C572989317A295230E7
:1012B0002200BE00A331722320302200BE00A331E1
:1012C000722342302200BE00A33172233430220048
:1012D000BE00A331722320302200BE00A33172234E
:1012E00031302200BE00A33172230A302200BE003A
:1012F000A33172232700581400302A0034028931A8
:10130000031D842989318A2901302A003402893158
:10131000031DF429200089318D1E90298931C329AC
:101320002A008931B51896298931BF2927008931CA
:101330005A189C298931BF2952302200BE00A3319E
:10134000722320302200BE00A331722342302200DB
:10135000BE00A331722335302200BE00A3317223B8
:1013600020302200BE00A331722330302200BE00A4
:10137000A33172230A302200BE00A331722327005A
:101380005A108931F4292A0089313518C92989313F
:10139000F229270089315A1CCF298931F22952308C
:1013A0002200BE00A331722320302200BE00A331F0
:1013B000722342302200BE00A33172233530220056
:1013C000BE00A331722320302200BE00A33172235D
:1013D00031302200BE00A33172230A302200BE0049
:1013E000A331722327005A1400302A0040028931A9
:1013F000031DFC298A31022A01302A0040028A3169
:10140000031D6C2A20008A310E1C082A8A313B2ACF
:101410002A008A31C1180E2A8A31372A27008A31D8
:101420006018142A8A31372A52302200BE00A331B4
:10143000722320302200BE00A331722343302200E9
:10144000BE00A331722330302200BE00A3317223CC
:1014500020302200BE00A331722330302200BE00B3
:10146000A33172230A302200BE00A3317223270069
:1014700060108A316C2A2A008A314118412A8A3147
:101480006A2A27008A31601C472A8A316A2A523028
:101490002200BE00A331722320302200BE00A331FF
:1014A000722343302200BE00A33172233030220069
:1014B000BE00A331722320302200BE00A33172236C
:1014C00031302200BE00A33172230A302200BE0058
:1014D000A33172232700601400302A0044028A31AD
:1014E000031D742A8A317A2A01302A0044028A3183
:1014F000031DE42A20008A318E1C802A8A31B32AF7
:101500002A008A31C518862A8A31AF2A27008A31F3
:1015100062188C2A8A31AF2A52302200BE00A331D1
:10152000722320302200BE00A331722343302200F8
:10153000BE00A331722331302200BE00A3317223DA
:1015400020302200BE00A331722330302200BE00C2
:10155000A33172230A302200BE00A3317223270078
:1015600062108A31E42A2A008A314518B92A8A3160
:10157000E22A27008A31621CBF2A8A31E22A5230CD
:101580002200BE00A331722320302200BE00A3310E
:10159000722343302200BE00A33172233130220077
:1015A000BE00A331722320302200BE00A33172237B
:1015B00031302200BE00A33172230A302200BE0067
:1015C000A33172232700621400302A0048028A31B6
:1015D000031DEC2A8A31F22A01302A0048028B319D
:1015E000031D5C2B20008A310E1DF82A8B312B2B1A
:1015F0002A008A31C918FE2A8B31272B27008B310C
:101600006418042B8B31272B52302200BE00A331EB
:10161000722320302200BE00A33172234330220007
:10162000BE00A331722332302200BE00A3317223E8
:1016300020302200BE00A331722330302200BE00D1
:10164000A33172230A302200BE00A3317223270087
:1016500064108B315C2B2A008B314918312B8B3174
:101660005A2B27008B31641C372B8B315A2B52306D
:101670002200BE00A331722320302200BE00A3311D
:10168000722343302200BE00A33172233230220085
:10169000BE00A331722320302200BE00A33172238A
:1016A00031302200BE00A33172230A302200BE0076
:1016B000A33172232700641400302A004C028B31BE
:1016C000031D642B8B316A2B01302A004C028B31B5
:1016D000031DD42B20008B318E1D702B8B31A32B3F
:1016E0002A008B31CD18762B8B319F2B27008B3125
:1016F00066187C2B8B319F2B52302200BE00A33109
:10170000722320302200BE00A33172234330220016
:10171000BE00A331722333302200BE00A3317223F6
:1017200020302200BE00A331722330302200BE00E0
:10173000A33172230A302200BE00A3317223270096
:1017400066108B31D42B2A008B314D18A92B8B318D
:10175000D22B27008B31661CAF2B8B31D22B523012
:101760002200BE00A331722320302200BE00A3312C
:10177000722343302200BE00A33172233330220093
:10178000BE00A331722320302200BE00A331722399
:1017900031302200BE00A33172230A302200BE0085
:1017A000A33172232700661422008B31A41BDA2B8D
:1017B0008C31172C2200A4132B008B316418E22BE0
:1017C0008C31172C52302200BE00A33172232030FE
:1017D0002200BE00A331722358302200BE00A33184
:1017E000722320302200BE00A33172232B00670831
:1017F0002000BA0095312E253A302200BE00A331D8
:1018000072232B0066082000BA0095317E253A30FD
:101810002200BE00A33172232B0065082000BA000D
:1018200095317E250A302200BE00A3317223063096
:101830002A0040028C31031D4D2C8C31C11B222CFF
:101840008C314D2C27008C316018282C8C314D2C7C
:1018500052302200BE00A331722320302200BE008D
:10186000A331722343302200BE00A33172233030F3
:101870002200BE00A331722320302200BE00A3311B
:101880007223260060082000BA00260061082000AC
:10189000BB009631DC26270060100000A3319A239C
:1018A00022008C313C1D562C8C31BA2C2200EC01CC
:1018B000ED01EE01EF014208B2002B008C31EC1C6F
:1018C000632C8C31682C22004208BE00A3317223A5
:1018D0002200B501513042028C31031D772C2B00C0
:1018E0008C31EC1C752C8C31772C9731B92F203032
:1018F000220042028C310318812C8C31CD2C8C318A
:101900004E2C2A30220042028C31031D8B2C8C314C
:10191000CD2C8C314E2C2330220042028C31031D01
:10192000952C8C31CD2C8C314E2C61302200420212
:101930008C31031CA72C7A3042028C31031CA32C5F
:101940008C31031DA72C203022004202C200273018
:1019500020002107A20022088400850122004208FD
:10196000200080000F3021028C310318B82CA10A0E
:101970008C314E2CF030220035028C31031CCB2CE4
:101980000319CB2CB5010030200021028C31031942
:10199000CB2C8C31CD2C8331372B8C31D12483311E
:1019A000372B00302200C7000030200021028C318C
:1019B000031DDC2C8D31252D0330200021028C31BC
:1019C0000318E42C8D31182D2030200028028C3192
:1019D0000319EC2C8D31182D5730200027028C3143
:1019E000031DF72C01302200C7008D31292D523004
:1019F000200027028D31031D022D02302200C70076
:101A00008D31292D5330200027028D31031D0D2DDE
:101A100003302200C7008D31292D473020002702D6
:101A20008D31031D182D04302200C7008D31292D62
:101A30002B008D31EC1C1E2D8D31252D51302200B7
:101A4000B9003A30BA00A531EC2500302000A100E1
:101A50000800FF302200C8000030C90041302000DB
:101A600029028D31031C972D433029028D31031C2F
:101A70003C2D8D31031D972D41302000290222007D
:101A8000C800C835C835C8350430200021028D3162
:101A900003184C2D8D31182D303020002A028D3145
:101AA0000318542D8D31182D373020002A028D3126
:101AB000031C5E2D03195E2D8D31182D2200480860
:101AC00020002A072200C80030304802C800053034
:101AD000200021028D310318712D0230A6008E31B5
:101AE000FB2E203020002B028D31031D7B2D043076
:101AF000A5008D31E02D303020002B028D310318F0
:101B0000832D8D31182D333020002B028D31031C95
:101B10008D2D03198D2D8D31182D303020002B0285
:101B20002200C90005302000A5008D31E02D533082
:101B3000200029028D31031CDE2D5A3029028D31FF
:101B4000031CA52D8D31031DDE2D2B302000290215
:101B50002200C8000430200021028D310318B42D6A
:101B60000230A6008E31FB2E203020002A028D315B
:101B7000031DC22D00302200C90003302000A50043
:101B80008D31E02D303020002A028D310318CA2D0E
:101B90008D31182D333020002A028D31031CD42DB5
:101BA0000319D42D8D31182D303020002A02220047
:101BB000C90004302000A5008D31E02D8D31182D95
:101BC00000302200CA000030CB002000250821028E
:101BD0008D31031CEE2D8D31031DF32D02302000BD
:101BE000A6008E31FB2E273020002507A2002208F8
:101BF000840085010008A300203023028E310319E0
:101C0000032E8D31182D2000A50A20002108250261
:101C10008E3103187A2EA20A22088400850100085A
:101C2000A300203023028E31031D182E8E317F2E0B
:101C30003030200023028E310318202E8D31182DD4
:101C40003930200023028E31031C2A2E03192A2E3C
:101C50008D31182D22004A082000E30022004B0895
:101C60002000E4002200CA01CB0103102000E30D94
:101C7000E40D63082200CA0720008E310318422EAB
:101C80008E31452E01302200CB072000640822004F
:101C9000CB0703102000E30DE40D0310E30DE40D6A
:101CA00063082200CA0720008E310318592E8E3196
:101CB0005C2E01302200CB07200064082200CB07F5
:101CC000303020002302A3000030A40023082200AB
:101CD000CA0720008E3103186F2E8E31722E01300C
:101CE0002200CB07200024082200CB072000A50AF1
:101CF0008E31052E03302000A6008E31FB2E0030E1
:101D00002200CC000030CD00273020002507A200A3
:101D1000A50A2000210825028E310318F62EA20AFA
:101D20002208840085010008A300303023028E3190
:101D300003189C2E8D31182D3930200023028E314E
:101D4000031CA62E0319A62E8D31182D22004C0837
:101D50002000E30022004D082000E4002200CC0116
:101D6000CD0103102000E30DE40D63082200CC0731
:101D700020008E310318BE2E8E31C12E013022007C
:101D8000CD07200064082200CD0703102000E30DDA
:101D9000E40D0310E30DE40D63082200CC072000DE
:101DA0008E310318D52E8E31D82E01302200CD076A
:101DB000200064082200CD07303020002302A30059
:101DC0000030A40023082200CC0720008E31031825
:101DD000EB2E8E31EE2E01302200CD07200024089C
:101DE0002200CD072000A50A8E31892E0430200064
:101DF000A6008E31FB2E00302000A1000130220011
:101E000047028F31031D842F103048028F31031D8C
:101E1000172F06302A0040028F31031D172F220092
:101E20004A082000960022004B0820009700153039
:101E3000220048028F31031C202F8F31031D842F75
:101E4000220048082000BE009431EF240230200018
:101E500042028F31031D602F22004808AD00AD35CE
:101E6000AD35AD0A23302000850022002D0820006A
:101E700084000008C8008F31481A402F8F31442F4A
:101E8000A6311D268F315E2F22008F314A184A2F2E
:101E90008F31552F0C302000BF000130C00094312D
:101EA000FF24823106228F315E2F0C302000BF00CC
:101EB0000130C0009431FF2482311F229231C52AA3
:101EC0000530200042028F31031D842F3E088935E2
:101ED0002200AD0022302000850022002D082000C5
:101EE000840022004A08200080002200AD0A22302F
:101EF0002000850022002D082000840022004B08CD
:101F0000200080009231C52A023022004702913120
:101F1000031D3F29103048028F31031D992F0630D1
:101F20002A0040028F31031D992FA8310B209131D7
:101F30003F291330220048028F31031DB72F06308E
:101F40002A004C028F31031DB72F023020002602D9
:101F50008F31031CAE2F8F31031DB32F00302200B1
:101F6000CA000030CB00A931CD2191313F29143076
:101F7000220048029031031D332806302A00500207
:101F80009031031D332852302200BE00A33172234A
:101F900020302200BE00A331722343302200BE0055
:101FA000A331722334302200BE00A33172232030CB
:101FB0002200BE00A331722322004F082000BA0085
:101FC00096316A2620302200BE00A33172232200FF
:101FD00062082000BA00220063082000BB0096318E
:101FE000782620302200BE00A33172232200600830
:101FF0002000BA0096316A2620302200BE00A331AC
:10200000722322006108BE009631C82620302200CB
:10201000BE00A3317223220050082000BA00220023
:1020200051082000BB009631782620302200BE00E7
:10203000A3317223220058082000BA002200590858
:102040002000BB0022005A082000BC0022005B08D0
:102050002000BD00963193260A302200BE00A33135
:10206000722391313F291630220048029131031822
:102070003F2948082000BE009431EF2400302000A2
:1020800042029031031D462890315428013020002F
:1020900042029031031D4E28903154280230200016
:1020A00042029031031DAD2822004808AD00AD3535
:1020B000AD35AD0A23302000850022002D08200018
:1020C00084000008C8009031481A682890317928A7
:1020D0000C302000BF000030C0009431FF242000ED
:1020E000400887003F0886000108BA00BB01903114
:1020F00094280C302000BF000030C0009431FF2431
:102100008231382220009031441C882890318F2859
:1021100000302000BA000030BB009031942801301C
:102120002000BA000030BB0020009031201C9A280B
:102130009031AD2852302200BE00A33172232030EE
:102140002200BE00A331722395310B2520302200DE
:10215000BE00A33172239631E126033020004202F3
:102160009031031DFA28220048082000BE00823169
:10217000822220009031C21FBF289031FA2820000F
:102180009031201CC5289031D62852302200BE0044
:10219000A331722320302200BE00A3317223953177
:1021A0000B2520302200BE00A331722322004808F4
:1021B000AD00AD35AD35AD0A2330200085002200DD
:1021C0002D08200084000008C8002200AD0A23303A
:1021D0002000850022002D08200084000008C70090
:1021E0009631F02620009031201CF8289031FA28F2
:1021F0009631DC260430200042029131031D022971
:10220000913108290530200042029131031D3F29F8
:1022100020009131201C0E2991311F2952302200BB
:10222000BE00A331722320302200BE00A3317223EE
:1022300095310B2520302200BE00A33172232000EF
:102240003E0889352200AD002230200085002200A2
:102250002D08200084000008BA002200AD0A2230B8
:102260002000850022002D08200084000008BB000B
:102270009131201C3D2991313F299631DC260330D4
:10228000220047029231031D0F2A2B0091316C1856
:102290004B29913153292730220048029231031CE7
:1022A0000F2A03190F2A1330220048029131031D0F
:1022B000672906302A004C029131031D6729063038
:1022C00022004A02913103196729A831662014308F
:1022D000220048029131031D7B2906302A0050025A
:1022E0009131031D7B29063022004A0291310319E6
:1022F0007B29A83166202D30220048029131031D30
:102300008829013049029131031D8829A701A801BC
:102310002F30220048029131031D952903304902D4
:102320009131031D952992311F2A1630220048024F
:1023300091310318A929003049029131031DA929BF
:1023400048082000BE0022004A082000C200933145
:10235000332322004808893589354907AD002330E9
:102360002000850022002D082000840022004A0859
:10237000200080009231E72206302A00400291318D
:10238000031DCA291030220048029131031DCA29B9
:10239000A73174271330220048029131031DDA2936
:1023A00006302A004C029131031DDA290630D00094
:1023B000A8315B201430220048029131031DED2921
:1023C00006302A00500291310319ED2906304C02E3
:1023D0009131031DED290030CC0028302200480245
:1023E0009131031DFA29033049029131031DFA2965
:1023F000AD3122252F30220048029231031D0F2AD1
:10240000003049029231031D072A97316E270230AE
:10241000220049029231031D0F2A97319F27043071
:10242000220047029231031DC42A2F304802923104
:10243000031D972A033049029231031D972A013068
:1024400022004A029231031D292A9731AB2792318B
:10245000D82A023022004A029231031D332A9731D2
:10246000AE279231D82A033022004A029231031D4E
:102470003D2A9731B1279231D82A043022004A02EE
:102480009231031D472A983199209231C42A053090
:1024900022004A029231031D512A9731B42792310A
:1024A000D82A0A3022004A029231031D5B2A973152
:1024B000C7279231C42A0B3022004A029231031DF1
:1024C000652A9731D3279231C42A0C3022004A0260
:1024D0009231031D6F2A98315F209231C42A0D304A
:1024E00022004A029231031D792A983180209231CC
:1024F000C42A143022004A029231031D832A9731E4
:10250000B7279231D82A153022004A029231031D92
:102510008D2A9731B9279231D82A1E3022004A02DB
:102520009231031D972A9731C6279231D82A473016
:102530002200BE00A331722320302200BE00A3314E
:102540007223220048082000BE0095310B2522008E
:102550004908303EBE00A331722320302200BE0065
:10256000A331722320003E088935893522004907AE
:10257000AD0023302000850022002D0820008400BB
:102580000008BA009631E12608002B009231EC1CBD
:10259000CB2A9231D22A38302200B9003A30BA0020
:1025A000A531EC258F31842F9231E72292310F2A09
:1025B0002B009231EC1CDE2A9231E52A40302200B9
:1025C000B9003A30BA00A531EC259231C42A2B006B
:1025D0009231EC1CED2A9231F42A49302200B900E4
:1025E0003A30BA00A531EC250800A0302200AC003A
:1025F000BF302C029331031C002B9331031D142B8D
:102600009331092BBF3022002C0293310318142B75
:10261000AC0A23302000850022002C082000840012
:10262000003080009331022B00302200AC001530C6
:102630002C029331031C1F2B9331031D322B93313A
:10264000282B153022002C0293310318322BAC0AB0
:1026500022002C082000BE000030C2009331372336
:102660009331212B08002000C4179331392B20000F
:10267000C413823162220030200042029331031DD4
:10268000632B93314318462B9431BD2C9431BE24D7
:102690000C302000BF000230C0009431FF24823192
:1026A0001F228C302000BF000030C0009431FF2476
:1026B000823106228C302000BF000130C0009431EE
:1026C000FF2482311F220130200042029331031D7A
:1026D0008B2B9331C3186E2B9431BD2C9431BE24B7
:1026E0000C302000BF000230C0009431FF24823142
:1026F00006228C302000BF000030C0009431FF243F
:10270000823106228C302000BF000130C00094319D
:10271000FF2482311F220230200042029331031D28
:10272000DE2B93314319962B9431BD2C9431BE246A
:1027300020009331C41B9E2B9331BA2B220093317E
:102740004C18A42B9331AF2B0C302000BF0001306C
:10275000C0009431FF24823106229331B82B0C3013
:102760002000BF000130C0009431FF2482311F22BD
:102770009331C32B0C302000BF000130C0009431D6
:10278000FF2482311F220C302000BF000230C00025
:102790009431FF2482311F228C302000BF00003092
:1027A000C0009431FF2482311F228C302000BF00F2
:1027B0000130C0009431FF2482311F2203302000F9
:1027C00042029431031D062C9331C319E92B943135
:1027D000BD2C9431BE240C302000BF000230C0005C
:1027E0009431FF2482311F228C302000BF00003042
:1027F000C0009431FF24823106228C302000BF00BB
:102800000130C0009431FF248231062204302000C0
:1028100042029431031D2E2C9431431A112C943111
:10282000BD2C9431BE240C302000BF000230C0000B
:102830009431FF2482311F228C302000BF000030F1
:10284000C0009431FF24823106228C302000BF006A
:102850000130C0009431FF2482310622053020006F
:1028600042029431031D942C9431C31A392C9431B3
:10287000BD2C9431BE2420009431C41B412C9431D2
:10288000602C20003E0889352200AD002230200057
:10289000850022002D082000840022004C08200022
:1028A00080002200AD0A22302000850022002D0881
:1028B0002000840022004D08200080009431772CF5
:1028C00089352200AD0022302000850022002D082D
:1028D00020008400003080002200AD0A2230200059
:1028E000850022002D0820008400003080009431F3
:1028F000BE240C302000BF000230C0009431FF2401
:1029000082311F228C302000BF000030C000943183
:10291000FF2482311F228C302000BF000130C00014
:102920009431FF2482311F2206302000420294316C
:10293000031DBC2C9431431B9F2C9431BD2C94312E
:10294000BE240C302000BF000230C0009431FF24B0
:1029500082311F228C302000BF000030C000943133
:10296000FF24823106228C302000BF000130C000DD
:102970009431FF2482311F220800080020003E0805
:10298000893589352200AD002330200085002200E2
:102990002D0820008400420880002200AD0A233068
:1029A0002000850022002D082000840000308000D7
:1029B0002200AD0A23302000850022002D082000CF
:1029C0008400003080002200AD0A23302000850002
:1029D00022002D0820008400003080000800200024
:1029E0003E08893589352200AD002330200085005E
:1029F00022002D08200084000008C20008002000EA
:102A00003E08893689368936BF070318C00A3E0852
:102A10000739C1000800283020003E029531031814
:102A2000252D3E083839893689368936413E2200BF
:102A3000BE00A331722320003E080739303E220039
:102A4000BE00A331722395312D2D20003E083F3961
:102A50002B3E2200BE00A33172230800003020006C
:102A6000B9003A082C00A0006430A400AA313E222C
:102A70002C0028082000B7002C002C082000BA00E9
:102A80000030370295310319472D0130B90000306D
:102A90002000390295310319532D303037072200B9
:102AA000BE00A331722320003A082C00A0000A3097
:102AB000A400AA313E222C0028082000B7002C00D8
:102AC0002C082000BA0000303702953103196A2D16
:102AD0000130B90000302000390295310319762DFC
:102AE000303037072200BE00A3317223303020007F
:102AF0003A072200BE00A3317223080020003A08E2
:102B00002C00A0000A30A400AA313E222C00280884
:102B10002000B7002C002C082000BA003030370706
:102B20002200BE00A3317223303020003A07220079
:102B3000BE00A3317223080000302000B9003A081B
:102B40002C00A00020003B082C00A1001030A400A5
:102B50002730A500AA3176222C0028082000B700D3
:102B60002C0029082000B8002C002C082000BA00F6
:102B70002C002D082000BB000030370295310319CE
:102B8000C32D0130B90000302000390295310319FE
:102B9000CF2D303037072200BE00A3317223200032
:102BA0003A082C00A00020003B082C00A100E830CF
:102BB000A4000330A500AA3176222C0028082000AA
:102BC000B7002C0029082000B8002C002C08200099
:102BD000BA002C002D082000BB00003037029531D0
:102BE0000319F42D0130B90000302000390296316C
:102BF0000319002E303037072200BE00A3317223A4
:102C000020003A082C00A00020003B082C00A10066
:102C10006430A4000030A500AA3176222C002808D8
:102C20002000B7002C0029082000B8002C002C0838
:102C30002000BA002C002D082000BB000030370215
:102C400096310319252E0130B900003020003902D9
:102C500096310319312E303037072200BE00A331E0
:102C6000722320003A082C00A00020003B082C0012
:102C7000A1000A30A4000030A500AA3176222C0061
:102C800028082000B7002C0029082000B8002C00DC
:102C90002C082000BA002C002D082000BB000030BA
:102CA000370296310319562E0130B900003020004A
:102CB000390296310319622E303037072200BE00E8
:102CC000A3317223303020003A072200BE00A33126
:102CD0007223080020003A082200BE00BE0E963182
:102CE000C82620003A082200BE009631C8260800F7
:102CF00020003B082200BE00BE0E9631C8262000F0
:102D00003B082200BE009631C82620003A08220067
:102D1000BE00BE0E9631C82620003A082200BE0032
:102D20009631C826080020003D082200BE00BE0ED5
:102D30009631C82620003D082200BE009631C826E4
:102D400020003C082200BE00BE0E9631C82620009E
:102D50003C082200BE009631C82620003B08220015
:102D6000BE00BE0E9631C82620003B082200BE00E1
:102D70009631C82620003A082200BE00BE0E9631C9
:102D8000C82620003A082200BE009631C826080056
:102D90000F302200BE0509303E029631031CD62EAC
:102DA0000319D62E3730BE079631D92E3030220087
:102DB000BE04A3317223080095319C25A63111264B
:102DC000080095312E25A631112608009631782667
:102DD000A6311126080096316A26A6311126080070
:102DE0002000BA01BB0147082200AD002000963147
:102DF000481CFC2E9731012FF03021009E009731A6
:102E0000042FF33021009E002000450809350935C4
:102E1000091421009D0000302200AC0000302C027B
:102E20009731031C162F9731031D222F97311F2F27
:102E3000003022002C0297310318222FAC0A000028
:102E40009731182F21009D14210097319D1C2A2FA6
:102E50009731242F21001B082000BA07973103184F
:102E6000332F9731362F01302000BB0721001C087B
:102E70002000BB07003047029731031D402F080098
:102E80002200AD0300302D029731031D6C2F20006E
:102E90009731C81C4D2F97316B2F0130200047020E
:102EA0009731031C6B2F03196B2F3A082C00A000DD
:102EB00020003B082C00A100200047082C00A400A3
:102EC000A501AA3176222C0028082000BA002C0087
:102ED00029082000BB0008009731222F2B00EC139B
:102EE00097316C1E752F97318B2F2B009731EC1D6E
:102EF0007B2F9731832F1D3020009B001030220044
:102F0000A6009731892F3D3020009B000830220019
:102F1000A60097319F2F2B009731EC1D912F9731F1
:102F2000992F7B3020009B0004302200A6009731AF
:102F30009F2F0E3020009B0020302200A6002B0087
:102F40009731EC1AA52F9731AA2F2B006E083F3925
:102F50002100980008008231D1220800A7313527CE
:102F60000800A631D8260800A7315827080001001C
:102F7000080020008B0178302100990019302300CF
:102F80009B00880180311928080008000800603083
:102F90002200B9003A30BA00A531EC25A631A426AA
:102FA0009631E6260800A2302200B9003930BA0076
:102FB000A531EC25A631A426E0302000BA05AB30BF
:102FC0002200B9003930BA00233020003B0297318B
:102FD000031DF42FA0303A029731031DF42FB330B4
:102FE0002200B9003930BA00233020003B0298316A
:102FF000031D0428C0303A029831031D0428BE3056
:103000002200B9003930BA00233020003B02983149
:10301000031D1428C0303A029831031D1428C9300A
:103020002200B9003930BA00243020003B02983128
:10303000031D2428C0303A029831031D2428D530BE
:103040002200B9003930BA00A531EC25E130220068
:10305000B9003930BA00A531EC25A631A426AB3031
:103060002200B9003930BA001F302000BA05013003
:103070003A029831031D4128ED302200B900393061
:10308000BA00023020003A029831031D4C28F1307A
:103090002200B9003930BA00033020003A029831DA
:1030A000031D5728F5302200B9003930BA00A53188
:1030B000EC250A302200BE00A331722308006930DB
:1030C0002200B9003A30BA00A531EC252B00983126
:1030D0006F186C289831752831302200BE00A3315A
:1030E00072232B006F1098317A2830302200BE00F6
:1030F000A33172230A302200BE00A33172230800DC
:103100002B0098316F18862898319128F9302200C9
:10311000B9003930BA00A531EC252B006F10983179
:10312000982817302200B9003A30BA00A531EC25B2
:10313000080000302200AD000F302D029831031C32
:10314000A4289831031DE8289831AD280F302200BB
:103150002D0298310318E828AD0A22002D08090E27
:103160002000BA0096316A2620302200BE00A3312A
:10317000722300302200AC000F302C029831031C67
:10318000C4289831031DE1289831CD280F30220042
:103190002C0298310318E128AC0A22002D08090EF0
:1031A0002C04B700A631B726220038082000BA0048
:1031B00096316A2620302200BE00A3317223983156
:1031C000C6280A302200BE00A33172239831A628F7
:1031D00008008B138801200091109A01A03114205F
:1031E000A0311420230098319E18F828993106291F
:1031F000A331272322009931BC1C002999310629CB
:1032000022003D0823009A002E08AD002200241061
:10321000A50A260825029931031D4729A501241472
:10322000003020006202993103191729E2032B00B4
:1032300099316C1F1D299931472922000130A707B8
:103240000030A83D033028029931031D4729E8309A
:1032500027029931031D4729A701A8012B00E50A80
:103260002200A4173C302B0065029931031D472929
:10327000E501E60A3C3066029931031D4729E60163
:10328000E70A183067029931031D4729E701220038
:10329000993124184D29993159292300A903003067
:1032A00029029931031D59292200A41564302300F5
:1032B000A9002B0099316C1F5F299E31E22E22005C
:1032C000993124186529993171292300AB03003005
:1032D0002B029931031D7129220024160A30230084
:1032E000AB002300AA0300302A029931031D802974
:1032F0008231BB22220026082300AA00AA36AA3661
:103300002200B40A643034029931031C8B2903195A
:103310008B29B401B50A0530290068029A31031DD2
:103320000E2A9931691B962999319E2922009931DB
:10333000241E9C2999319E299A310E2A27004C0877
:103340002300A60027004D082300A70026004C08F4
:103350002300A40026004D082300A50029006808CA
:103360002300A100290069082300A20029006A089F
:103370002300A30029006C082300A800A43107241F
:10338000230026082700CC00230027082700CD00B3
:10339000230024082600CC00230025082600CD00A9
:1033A00023009931A019D6299931FC292300A018AE
:1033B000DC2921000C13DE2921000C17200023003A
:1033C000A01AE52921008C13E72921008C17200081
:1033D00023002018EE2920000C13F02920000C17E0
:1033E00020002300201AF72920008C13F92920003F
:1033F0008C1720009A310E2A2300A018022A2100DF
:103400000C13042A21000C172000230020180B2A7B
:1034100020000C130D2A20000C1720000530290075
:103420006C029A31031D8F2A9A316D1B192A9A3129
:10343000212A22009A31241E1F2A9A31212A9A31E8
:103440008F2A27004E082300A60027004F082300DC
:10345000A70026004E082300A40026004F082300E2
:10346000A50029006C082300A10029006D08230095
:10347000A20029006E082300A3000030A800A43198
:103480000724230026082700CE0023002708270052
:10349000CF00230024082600CE00230025082600A4
:1034A000CF0023009A31A019572A9A317D2A230090
:1034B000A0185D2A21008C135F2A21008C172000A0
:1034C0002300A01A662A21000010682A2100001497
:1034D0002000230020186F2A20008C13712A20005E
:1034E0008C1720002300201A782A200000107A2A46
:1034F0002000001420009A318F2A2300A018832A6C
:1035000021008C13852A21008C172000230020180D
:103510008C2A20008C138E2A20008C172000053066
:103520002A0020029B31031D122B9A31211B9A2A5B
:103530009A31A22A22009A31241EA02A9A31A22A64
:103540009B31122B270050082300A60027005108AA
:103550002300A700260050082300A40026005108DD
:103560002300A5002A0020082300A1002A0021082A
:103570002300A2002A0022082300A3002A00240816
:103580002300A800A4310724230026082700D00028
:10359000230027082700D100230024082600D0009C
:1035A000230025082600D10023009A31A019DA2A29
:1035B0009B31002B2300A018E02A21000D10E22AE5
:1035C00021000D1420002300A01AE92A21008D10EB
:1035D000EB2A21008D14200023002018F22A20005D
:1035E0000D10F42A20000D1420002300201AFB2ABD
:1035F00020008D10FD2A20008D1420009B31122BFD
:103600002300A018062B21000D10082B21000D14FB
:103610002000230020180F2B20000D10112B20005C
:103620000D14200005302A0024029B31031D932B2A
:103630009B31251B1D2B9B31252B22009B31241EEA
:10364000232B9B31252B9B31932B270052082300E2
:10365000A600270053082300A700260052082300D5
:10366000A400260053082300A5002A0024082300F4
:10367000A1002A0025082300A2002A002608230012
:10368000A3000030A800A431072423002608270047
:10369000D200230027082700D30023002408260097
:1036A000D200230025082600D30023009B31A01957
:1036B0005B2B9B31812B2300A018612B21008D10E7
:1036C000632B21008D1420002300A01A6A2B2100F7
:1036D00000106C2B21000014200023002018732BF5
:1036E00020008D10752B20008D1420002300201A3F
:1036F0007C2B200000107E2B2000001420009B312A
:10370000932B2300A018872B21008D10892B2100DB
:103710008D14200023002018902B20008D10922B58
:1037200020008D14200005302A0038029C31031D32
:10373000162C9B31391B9E2B9B31A62B22009B31D3
:10374000241EA42B9B31A62B9C31162C27005C0831
:103750002300A60027005D082300A70026005C08C0
:103760002300A40026005D082300A5002A003808D5
:103770002300A1002A0039082300A2002A003A08E9
:103780002300A3002A003C082300A800A43107243A
:10379000230026082700DC00230027082700DD007F
:1037A000230024082600DC00230025082600DD0075
:1037B00023009B31A019DE2B9C31042C2300A01880
:1037C000E42B21000D13E62B21000D172000230010
:1037D000A01AED2B21008D13EF2B21008D17200057
:1037E00023002018F62B20000D13F82B20000D17B6
:1037F00020002300201AFF2B20008D13012C200015
:103800008D1720009C31162C2300A0180A2C2100B3
:103810000D130C2C21000D17200023002018132C51
:1038200020000D13152C20000D17200005302A0054
:103830003C029C31031D972C9C313D1B212C9C315B
:10384000292C22009C31241E272C9C31292C9C31B0
:10385000972C27005E082300A60027005F0823009E
:10386000A70026005E082300A40026005F082300AE
:10387000A5002A003C082300A1002A003D082300DF
:10388000A2002A003E082300A3000030A800A431B3
:103890000724230026082700DE002300270827002E
:1038A000DF00230024082600DE0023002508260070
:1038B000DF0023009C31A0195F2C9C31852C230054
:1038C000A018652C21008D13672C21008D17200076
:1038D0002300A01A6E2C21000010702C210000146F
:1038E000200023002018772C20008D13792C200035
:1038F0008D1720002300201A802C20000010822C1D
:103900002000001420009C31972C2300A0188B2C41
:1039100021008D138D2C21008D17200023002018ED
:10392000942C20008D13962C20008D17200005303C
:103930002A0044029D31031D1A2D9C31451BA22CE7
:103940009C31AA2C22009C31241EA82C9C31AA2C2C
:103950009D311A2D270062082300A6002700630866
:103960002300A700260062082300A40026006308A5
:103970002300A5002A0044082300A1002A004508CE
:103980002300A2002A0046082300A3002A004808BA
:103990002300A800A4310724230026082700E20002
:1039A000230027082700E300230024082600E20064
:1039B000230025082600E30023009C31A019E22CF7
:1039C0009D31082D2300A018E82C21008E10EA2C30
:1039D00021008E1420002300A01AF12C21000E11CA
:1039E000F32C21000E15200023002018FA2C2000B3
:1039F0008E10FC2C20008E1420002300201A032D92
:103A000020000E11052D20000E1520009D311A2DCD
:103A10002300A0180E2D21008E10102D21008E14D1
:103A2000200023002018172D20008E10192D2000B3
:103A30008E14200005302A0048029D31031D9B2D65
:103A40009D31491B252D9D312D2D22009D31241E98
:103A50002B2D9D312D2D9D319B2D2700640823009A
:103A6000A600270065082300A7002600640823009D
:103A7000A400260065082300A5002A0048082300AA
:103A8000A1002A0049082300A2002A004A082300B6
:103A9000A3000030A800A431072423002608270033
:103AA000E400230027082700E5002300240826005F
:103AB000E400230025082600E50023009D31A0191D
:103AC000632D9D31892D2300A018692D21000E1131
:103AD0006B2D21000E1520002300A01A722D21004D
:103AE0000010742D210000142000230020187B2DCD
:103AF00020000E117D2D20000E1520002300201A1D
:103B0000842D20000010862D2000001420009D31FF
:103B10009B2D2300A0188F2D21000E11912D210027
:103B20000E15200023002018982D20000E119A2D2C
:103B300020000E152000220024129D314F18A22DC6
:103B40009D31D52D22009D312418A82D9D31D52DD4
:103B5000003022005B029D31031DCE2D00305A0241
:103B60009D31031DCE2D003059029D31031DCE2DF8
:103B7000003058029D31031DCE2D9D31CF1BC22D2B
:103B80009D31C42D22004F152200CF175C08D800AC
:103B90005D08D9005E08DA005F08DB002200013012
:103BA000D8020030D93BDA3BDB3B06302A0040022A
:103BB0009E31031D5E2E9D314118E02D9E315E2EFB
:103BC00022009D312418E62D9E315E2E01302C00FE
:103BD000B80220009D31031CEF2D9D31F22D0130E4
:103BE0002C00B90220009D31031CF82D9D31FB2DC6
:103BF00001302C00BA0220009E31031C012E9E31A0
:103C0000042E01302C00BB0200302C00B902200031
:103C10009E31031C0D2E9E31102E01302C00BA0255
:103C200020009E31031C162E9E31192E01302C00CF
:103C3000BB0200302C00BA0220009E31031C222E51
:103C40009E31252E01302C00BB0200302C00BB021F
:103C500000303B029E31031D5E2E00303A029E3141
:103C6000031D5E2E003039029E31031D5E2E003092
:103C700038029E31031D5E2E200018101608260003
:103C8000E000200017082600E100270060142A0049
:103C90009E31411F4D2E9E31532E200096019701DB
:103CA00018149E31552E2A0041102C003C08B800F3
:103CB0003D08B9003E08BA003F08BB0022009E3113
:103CC0002418642E9E31AE2E073022006D029E31E4
:103CD000031C6D2E9E31031D7D2E073022006D02C8
:103CE0009E31031C782ED1306C029E3103187D2E3C
:103CF00022000130EC070030ED3D073022006D025C
:103D00009E31031D892ED0306C029E31031D892EF9
:103D1000A414EA3022006F029E31031C922E9E31C1
:103D2000031DA22EEA3022006F029E31031C9D2E3D
:103D300061306E029E310318A22E22000130EE0780
:103D40000030EF3DEA3022006F029E31031DAE2E9F
:103D500060306E029E31031DAE2E24152B009E3165
:103D6000EC1EB42E9E31D62E2B006E081F3920007B
:103D7000D907203059029E31031CCD2E2030590224
:103D8000D9002B006E0889378937893709360936FB
:103D9000090A210098009E31D62E2B006E08893723
:103DA00089378937093609362100980020009E316D
:103DB0009118DC2E9E31DE2E2B006F142000911006
:103DC0008B1709000530290068029F31031D082F59
:103DD00026004C082700CC0720009E310318F22E45
:103DE0009E31F52E01302700CD0726004D08270013
:103DF000CD079E314D19FE2E9F31062F20000C1746
:103E000027004D08403CCD009F31082F20000C13A7
:103E1000053029006C029F31031D2E2F26004E080D
:103E20002700CE0720009F310318182F9F311B2F2A
:103E300001302700CF0726004F082700CF079F310A
:103E40004F19242F9F312C2F20008C1727004F084B
:103E5000403CCF009F312E2F20008C1305302A00CC
:103E600020029F31031D542F260050082700D00741
:103E700020009F3103183E2F9F31412F0130270032
:103E8000D107260051082700D1079F3151194A2F29
:103E90009F31522F20000D1427005108403CD100C3
:103EA0009F31542F20000D1005302A0024029F312D
:103EB000031D7A2F260052082700D20720009F31C9
:103EC0000318642F9F31672F01302700D307260086
:103ED00053082700D3079F315319702F9F31782F34
:103EE00020008D1427005308403CD3009F317A2FC7
:103EF00020008D1005302A0038029F31031DA02FAD
:103F000026005C082700DC0720009F3103188A2F59
:103F10009F318D2F01302700DD0726005D08270027
:103F2000DD079F315D19962F9F319E2F20000D17C1
:103F300027005D08403CDD009F31A02F20000D13BD
:103F400005302A003C029F31031DC62F26005E0863
:103F50002700DE0720009F310318B02F9F31B32FB9
:103F600001302700DF0726005F082700DF079F31A9
:103F70005F19BC2F9F31C42F20008D1727005F08C9
:103F8000403CDF009F31C62F20008D1305302A00F2
:103F900044029F31031DEC2F260062082700E20730
:103FA00020009F310318D62F9F31D92F01302700D1
:103FB000E307260063082700E3079F316319E22F18
:103FC0009F31EA2F20008E1427006308403CE30055
:103FD0009F31EC2F20008E1005302A004802A031BE
:103FE000031D1228260064082700E40720009F31E3
:103FF0000318FC2F9F31FF2F01302700E507260013
:1040000065082700E507A03165190828A0311028A8
:1040100020000E1527006508403CE500A03112285D
:1040200020000E119E31D62E220033102000A03128
:10403000911A1C28A03124282200331423001908C7
:104040002200C300A03138282300A0311D192A28DE
:10405000A0313028230019082200C300A0313828DD
:104060002300A0319D183628A031382823001D12C6
:104070002200A03133183E28A0314028A331E52387
:10408000080004302A002002A031031D86282000E9
:1040900015082A00A30022082302A03103186C2867
:1040A0002700D00A90305002A031031D6028013053
:1040B0002600D000D10103302700D100A030D0006D
:1040C000A03027005002A031031C6A2803196A2877
:1040D000A030D000A03184282700D00390305002B7
:1040E000A031031D7C2800302600D000D101023011
:1040F0002700D1007030D000703027005002A0316E
:10410000031884287030D0002000950104302A0064
:104110002402A031031D962825080C390C3A813859
:1041200020009E0001309F00A0319928003020001F
:104130009E0001302200B600080004302A0024024C
:10414000A031031DE228200015082A00A700260838
:104150002702A0310318C8282700D20A9030520243
:10416000A031031DBC2801302600D200D30103304A
:104170002700D300A030D200A03027005202A03187
:10418000031CC6280319C628A030D200A031E0289D
:104190002700D20390305202A031031DD8280030EE
:1041A0002600D200D30102302700D3007030D200A5
:1041B000703027005202A0310318E0287030D2007E
:1041C0002000950104302A002802A031031DF228A6
:1041D00029080C390C3A813820009E0002309F00DB
:1041E000A031F528003020009E0002302200B600E9
:1041F000080004302A002802A131031D3E292000B6
:1042000015082A00AB002A082B02A1310318242923
:104210002700D40A90305402A131031D182901301F
:104220002600D400D50103302700D500A030D400EB
:10423000A03027005402A131031C2229031922298E
:10424000A030D400A1313C292700D403903054027F
:10425000A131031D342900302600D400D5010230DD
:104260002700D5007030D400703027005402A131EF
:1042700003183C297030D4002000950104302A0036
:104280002C02A131031D4E292D080C390C3A81381E
:1042900020009E0003309F00A131512900302000F2
:1042A0009E0003302200B600080004302A002C02D1
:1042B000A131031D9A29200015082A00AF002E08FD
:1042C0002F02A131031880292700D60A9030560208
:1042D000A131031D742901302600D600D701033017
:1042E0002700D700A030D600A03027005602A13109
:1042F000031C7E2903197E29A030D600A1319829FC
:104300002700D60390305602A131031D90290030BA
:104310002600D600D70102302700D7007030D60023
:10432000703027005602A131031898297030D6004A
:104330002000950104302A003002A131031DAA2972
:1043400031080C390C3A813820009E0004309F005F
:10435000A131AD29003020009E0004302200B600BB
:10436000080004302A003002A131031DF629200084
:1043700015082A00B30032083302A1310318DC29E2
:104380002700D80A90305802A131031DD0290130EE
:104390002600D800D90103302700D900A030D8006A
:1043A000A03027005802A131031CDA290319DA29A9
:1043B000A030D800A131F4292700D803903058024A
:1043C000A131031DEC2900302600D800D9010230AC
:1043D0002700D9007030D800703027005802A13172
:1043E0000318F4297030D8002000950104302A0009
:1043F0003402A231031D062A35080C390C3A8138E3
:1044000020009E0005309F00A231092A00302000C4
:104410009E0005302200B600080004302A00340255
:10442000A231031D522A200015082A00B7003608C1
:104430003702A2310318382A2700DA0A90305A02CC
:10444000A231031D2C2A01302600DA00DB010330E3
:104450002700DB00A030DA00A03027005A02A2318A
:10446000031C362A0319362AA030DA00A231502A5A
:104470002700DA0390305A02A231031D482A003087
:104480002600DA00DB0102302700DB007030DA00A2
:10449000703027005A02A2310318502A7030DA0017
:1044A00020009501043029006002A231031D622A18
:1044B00061080C390C3A813820009E0006309F00BC
:1044C000A231652A003020009E0006302200B6008E
:1044D0000800043029006002A231031DAE2A20002A
:1044E00015082900E30062086302A2310318942A28
:1044F0002700C80A90304802A231031D882A0130E3
:104500002600C800C90103302700C900A030C80038
:10451000A03027004802A231031C922A0319922AD4
:10452000A030C800A231AC2A2700C803903048024E
:10453000A231031DA42A00302600C800C9010230A0
:104540002700C9007030C800703027004802A2312F
:104550000318AC2A7030C8002000950104302900EF
:104560006402A231031DBE2A65080C390C3A813859
:1045700020009E0007309F00A231C12A0030200099
:104580009E0007302200B6000800043029006402B3
:10459000A331031D0A2B200015082900E700660837
:1045A0006702A2310318F02A2700CA0A90304A0293
:1045B000A231031DE42A01302600CA00CB010330DA
:1045C0002700CB00A030CA00A03027004A02A23149
:1045D000031CEE2A0319EE2AA030CA00A331082BCF
:1045E0002700CA0390304A02A331031D002B00307C
:1045F0002600CA00CB0102302700CB007030CA0071
:10460000703027004A02A3310318082B7030CA000B
:104610002000950104302A002002A331031D1A2B2B
:1046200021080C390C3A813820009E0000309F0090
:10463000A3311D2B003020009E0000302200B60068
:104640000800A0302200BF00A030C00008002200F7
:1046500040083F02A331031D302BBC14A331432B70
:1046600022003F0820008400850100082200BD00D0
:10467000BC10BF0AEF303F02A331031C432B0319C8
:10468000432BA030BF000800220040083F02A331A6
:104690000319442B3F0820008400850100082200F4
:1046A000BD00BC10BF0AEF303F02A331031C5C2BDE
:1046B00003195C2BA030BF00080022004008200036
:1046C0008400850122003E08200080002200C00AEC
:1046D000EF304002A331031C712B0319712BA03062
:1046E000C00008002200400AC100EF304102A3319F
:1046F000031C7E2B03197E2BA030C10022003F0833
:104700004102A331031D872B0000A3317E2B220021
:10471000400820008400850122003E08200080001F
:1047200022004108C000080049302200C40049307E
:10473000C5000800220045084402A331031DA32B35
:104740003C15A331B62B22004408200084008501CB
:1047500000082200C2003C11C40A58304402A331B0
:10476000031CB62B0319B62B4930C40008002200E5
:1047700045084402A3310319B72B440820008400E4
:10478000850100082200C2003C11C40A58304402CE
:10479000A331031CCF2B0319CF2B4930C4000800D1
:1047A00022004508200084008501220043082000E3
:1047B00080002200C50A58304502A331031CE42BB7
:1047C0000319E42B4930C50008002200450AC60041
:1047D00058304602A331031CF12B0319F12B493049
:1047E000C600220044084602A331031DFA2B08002C
:1047F000A331F12B2200450820008400850122000E
:1048000043082000800022004608C5000800200060
:10481000DA012300A431A21E0F2CA431422C230064
:10482000A431221E152CA431272C22003408230089
:104830002402A431031C1F2CA431031D232C2000AF
:104840005A10A431252C20005A14A431402C2300E6
:10485000A60A23082602A431031C312C0319312C8B
:10486000A601230026082402A431031C3A2CA431FB
:10487000031D3E2C20005A10A431402C20005A1455
:10488000A431952C2300A431221E482CA431692C7C
:1048900023002408A6072000A4310318512CA431BA
:1048A000542C01302300A707230025087F39A707D0
:1048B000A431271B5D2CA431652C20005A14230041
:1048C0002708C03EA700A431672C20005A10A4314D
:1048D000952C2300A635A70DA431A71F712CA43158
:1048E0007F2C2300A431271F772CA4317B2C23009D
:1048F0002614A4317D2C23002610A4318B2C2300F8
:10490000A431271F852CA431892C23002610A43123
:104910008B2C23002614230026088913013E240231
:10492000200003185A14031C5A102300A00123006E
:1049300022189D2C2000DA109F2C2000DA14200071
:104940002300A218A62C20005A11A82C20005A15CA
:104950002000063023002802A531031D9D2DA0153F
:10496000A431A51FB52CA531292D2000A4315A1D35
:10497000BB2CA431CB2C2000A431DA1CC12CA431D7
:10498000C62C23002012A012A431D92C23002016FB
:10499000A012A431D92C2000A431DA1CD12CA431CE
:1049A000D52C2300A016A431D92C2300A016A431A5
:1049B000D92C2000A4315A1DDF2CA531052D200053
:1049C000A431DA1CE52CA431F52C2000A4315A1CAA
:1049D000EB2CA431F02C23002010A010A531272DA2
:1049E00023002014A010A531272D2000A4315A1C2B
:1049F000FB2CA531002D23002014A010A531272D5C
:104A000023002010A010A531272D2000A531DA1C8D
:104A10000B2DA5311A2D2000A5315A1C112DA531C1
:104A2000152D2300A014A531272D23002014A0103C
:104A3000A531272D2000A5315A1C202DA531242D6C
:104A40002300A014A531272D23002010A010A5318C
:104A50009B2D2000A5315A1D2F2DA5313F2D200063
:104A6000A531DA1C352DA5313A2D23002010A010D8
:104A7000A5314D2D23002014A010A5314D2D20006F
:104A8000A531DA1C452DA531492D2300A014A531EF
:104A90004D2D2300A014A5314D2D2000A5315A1D08
:104AA000532DA531792D2000A531DA1C592DA531C2
:104AB000692D2000A5315A1C5F2DA531642D2300DE
:104AC0002012A012A5319B2D23002016A012A53183
:104AD0009B2D2000A5315A1C6F2DA531742D23006C
:104AE0002016A012A5319B2D23002012A012A53163
:104AF0009B2D2000A531DA1C7F2DA5318E2D2000A5
:104B0000A5315A1C852DA531892D2300A016A5316C
:104B10009B2D23002016A012A5319B2D2000A5312E
:104B20005A1C942DA531982D2300A016A5319B2D3C
:104B300023002012A012A531EB2D2000A5315A1D13
:104B4000A32DA531C92D2000A531DA1CA92DA53131
:104B5000B92D2000A5315A1CAF2DA531B42D23004D
:104B60002010A010A531EB2D23002014A010A5319A
:104B7000EB2D2000A5315A1CBF2DA531C42D2300DB
:104B80002014A010A531EB2D23002010A010A5317A
:104B9000EB2D2000A531DA1CCF2DA531DE2D200014
:104BA000A5315A1CD52DA531D92D2300A014A5312E
:104BB000EB2D23002014A010A531EB2D2000A531F2
:104BC0005A1CE42DA531E82D2300A014A531EB2DAE
:104BD00023002010A010080022003A0820008500C1
:104BE0008517220039082000840000082200BB003D
:104BF00000303B02A531031DFE2D080022003B08BA
:104C0000BE00A33172232200B90A0319BA0AA531E2
:104C1000EC2D22003A0820008A00220039082000EA
:104C200082000A302200BE00A33172230800203027
:104C30002200BE00A331722308002000C701220019
:104C40004808F839AD00AD35AD35AD0A2330200048
:104C5000850022002D08200084000008C800A6312D
:104C6000481A342EA631362E200047140430200076
:104C70004807C800A631481A3F2EA631412E200011
:104C8000C714043020004807C800A631481A4A2E2D
:104C9000A6314C2E20004715043020004807C800DC
:104CA000A631481A552EA631572E2000C7150430BC
:104CB00020004807C800A631481A602EA631622E8F
:104CC00020004716043020004807C800A631481AC3
:104CD0006B2EA6316D2E2000C71604302000480729
:104CE000C800A631481A762EA631782E2000471724
:104CF000043020004807C800A631481A812EA6318A
:104D0000832E2000C7170C302000BF000030C000E9
:104D10009431FF242000400887003F0886000108E6
:104D2000BA0022004A0820004705BA040C30BF0030
:104D30000030C0009431FF242000400887003F0865
:104D400086003A08810008002300063091000030F8
:104D5000920015178B131514000000008B17130811
:104D60002000BA00230014082000BB000800220025
:104D7000370823009100151395131514130822000A
:104D8000B8000800220037082300910022003808EC
:104D9000230093001513951315158B1355309600AA
:104DA000AA30960095148B1715119518D42E08006B
:104DB00000302200B700BF303702A631031CE32EBB
:104DC000A631031DFB2EA631EC2EBF302200370288
:104DD000A6310318FB2EB70AA631B72623302000D0
:104DE00085002200370820008400220038082000B7
:104DF0008000A631E52E080000302200B7005830B0
:104E00003702A731031C072FA731031D292FA73114
:104E1000102F583022003702A7310318292FB70A64
:104E2000A631B72603302200C7003708C800C901E1
:104E3000C836C90CC836C90CC90EC936C9363808B7
:104E4000CA00CB0103302000A6008E31FE26A73118
:104E5000092F2B00A73150192F2FA731342F0330E2
:104E60002200CA00AD312225080000302200B70020
:104E7000BF303702A731031C402FA731031D572F26
:104E8000A731492FBF3022003702A7310318572F0F
:104E9000B70A233020008500220037082000840054
:104EA00000082200B800A631C226A731422F080010
:104EB00000302200B700BF303702A731031C632F38
:104EC000A731031D732FA7316C2FBF30220037028B
:104ED000A7310318732FB70AFF302200B800A6319C
:104EE000C226A731652F08002A00A731C11D7A2FDD
:104EF000A731B82F2A00A731411D802FA7319C2F41
:104F00002A00A731C11C862FA731912F01302C0018
:104F1000BC000030BD000030BE000030BF00A73133
:104F20009A2F0A302C00BC000030BD000030BE00BB
:104F30000030BF00A731B62F2A00A731C11CA22F15
:104F4000A731AD2F64302C00BC000030BD00003014
:104F5000BE000030BF00A731B62FE8302C00BC00E7
:104F60000330BD000030BE000030BF00A731F42F79
:104F70002A00A731411DBE2FA731DA2F2A00A73101
:104F8000C11CC42FA731CF2F10302C00BC002730FC
:104F9000BD000030BE000030BF00A731D82F603008
:104FA0002C00BC00EA30BD000030BE000030BF0065
:104FB000A731F42F2A00A731C11CE02FA731EB2F16
:104FC000C0302C00BC002730BD000930BE000030CE
:104FD000BF00A731F42F80302C00BC00EE30BD00A4
:104FE0003630BE000030BF00200018109601970137
:104FF00099132A00410830398138200098002C008C
:105000003C08B8003D08B9003E08BA003F08BB00A4
:105010002700601008002A00A831411C1128A8317F
:105020002F282A00A831411F1728A8312028200046
:1050300018101608BA001708BB001814A8312D283C
:1050400020001708BC001608BA001708BB003B0870
:105050003C02A83103192D28BA01A83137282600AF
:1050600060082000BA00260061082000BB00200074
:10507000BC01BD01A831201C3F28A8315A2852305C
:105080002200BE00A331722320302200BE00A331D3
:10509000722343302200BE00A3317223303022003D
:1050A000BE00A331722320302200BE00A331722340
:1050B0009631DC26080021008E150E162400941768
:1050C0002830950097154F30920008002400950174
:1050D000080000302000E0000030E1002000013036
:1050E000E0070030E13D07306102A831031C8E2843
:1050F00007306102A831031C8028A831031D8628CF
:10510000403020006002A831031C8E28200091113D
:105110009211A8316620A8315B2008002000A83138
:1051200091199428A8316E282000911108000030B0
:1051300020006202A831031D972891112400161443
:10514000A8316920A03024009100A83169202000F6
:105150005C0824009100A831692020005B0824002D
:105160009100A831692020005D0824009100A83139
:10517000692024001615A831692006302000E200BD
:105180000800003020006202A831031DC1289111DF
:1051900024001614A8316920A03024009100A83101
:1051A000692020005C0824009100A83169202000BB
:1051B0005B0824009100A831692000302000DF0046
:1051C0003F305F02A831031CE828A931031D0229E2
:1051D000A831F1283F3020005F02A93103180229CD
:1051E000DF0A2000DF175F17223085005F08840088
:1051F000000824009100A83169202000DF135F130C
:10520000A831EA2824001615A831692006302000AC
:10521000E2000800003020006202A931031D0A29C3
:10522000911124001614A8316920A03024009100A7
:10523000A831692020005C0824009100A831692071
:1052400020005B0824009100A831692024009614F6
:10525000A8316920A13024009100A83169202400E0
:105260009615A8316920240011082000DD002400D3
:1052700096161616A831692024001615A831692043
:105280000800003020006202A931031D412991115C
:1052900024001614A8316920A03024009100A83100
:1052A000692020005C0824009100A83169202000BA
:1052B0005B0824009100A831692024009614A831CD
:1052C0006920A13024009100A8316920003020001D
:1052D000DF001E305F02A931031C7129A931031DB3
:1052E0008B29A9317A291E3020005F02A9310318C9
:1052F0008B29DF0A24009615A831692024001108A3
:105300002000BA0096316A26240096121616A8319B
:105310006920A931732924009615A8316920240039
:1053200011082000BA0096316A2624009616161637
:105330001615A831692008002000911108000030DE
:105340002000DF001F305F02A931031CAA29A93108
:10535000031DCC29A931B3291F3020005F02A931D8
:105360000318CC29DF0A2000DF175F172200A931BC
:10537000CA1ABC29A931BE292000DF16223020001C
:1053800085005F0884000008BA00DF12DF135F1396
:1053900096316A26A931AC29080052302200BE009D
:1053A000A331722320302200BE00A3317223433088
:1053B0002200BE00A331722333302200BE00A3318D
:1053C000722320302200BE00A33172232200A931B3
:1053D000CB1FEC29A931F62922004A082000BA0087
:1053E00022004B082000BB00AA31132A22006208C9
:1053F0002000BA00220063082000BB00BA35BB0DB4
:10540000BA35BB0DBA35BB0DBA35BB0DBA35BB0DC0
:10541000BA35BB0DBB172200AA31CA1A112AAA310C
:10542000132A2000BA169631782620302200BE00BA
:10543000A331722322004A082000DB0022004B081F
:105440002000DC00AA31DC1F272AAA312B2AA9312F
:105450004121AA312D2AA9319F210A302200BE0004
:10546000A3317223080001302200C7002C08C800B5
:10547000C901CA01CB018E31FE2608002C0020088C
:105480002000E3002C0024082000E4002C00AC01E4
:1054900001302000E50008306502AA31031C532AC0
:1054A000AA31031D712AAA315C2A08302000650246
:1054B000AA310318712AE50A2000630D2C00AC0DF7
:1054C000200064082C00AC022000AA31031C6A2AC8
:1054D000AA316D2A2C00AC0703102000E30DAA317D
:1054E000552A200063082C00A80008002C00200882
:1054F0002000E3002C0021082000E4002C002408F8
:105500002000E5002C0025082000E6002C00AC015E
:10551000AD0101302000E70010306702AA31031C02
:10552000942AAA31031DD42AAA319D2A10302000C2
:105530006702AA310318D42AE70A2000640D2C0060
:10554000AC0DAD0D200066082C002D02AA31031C05
:10555000CE2A200066082C002D02AA31031CB32A93
:10556000AA31031DBA2A200065082C002C02AA319A
:10557000031CCE2A200065082C00AC022000AA31B2
:10558000031CC42AAA31C72A01302C00AD02200016
:1055900066082C00AD020314AA31CF2A03102000A4
:1055A000E30DE40DAA31962A200063082C00A80020
:1055B000200064082C00A90008002C00200820000E
:1055C000E3002C0021082000E4002C002208200029
:1055D000E5002C0023082000E6002C002408200011
:1055E000E7002C0025082000E8002C0026082000F9
:1055F000E9002C0027082000EA00EB01EC01ED0196
:10560000EE010130EF0020306F02AB31031C0B2B99
:10561000AB31031D932BAB31142B203020006F02D4
:10562000AB310318932BEF0A2000660DEB0DEC0D48
:10563000ED0DEE0D6A086E02AB31031C8B2B6A0870
:105640006E02AB31031C272BAB31031D492B20000D
:1056500069086D02AB31031C8B2B69086D02AB31FD
:10566000031C352BAB31031D492B200068086C024D
:10567000AB31031C8B2B68086C02AB31031C432B32
:10568000AB31031D492B200067086B02AB31031CB3
:105690008B2B20006708EB02AB31031C512BAB3185
:1056A000542B01302000EC022000AB31031C5A2B9C
:1056B000AB315D2B01302000ED022000AB31031C2B
:1056C000632BAB31662B01302000EE02200068080E
:1056D000EC02AB31031C6E2BAB31712B013020007F
:1056E000ED022000AB31031C772BAB317A2B01305C
:1056F0002000EE0220006908ED02AB31031C822B72
:10570000AB31852B01302000EE0220006A08EE024A
:105710000314AB318C2B03102000E30DE40DE50DD9
:10572000E60DAB310D2B200063082C00A8002000F3
:1057300064082C00A900200065082C00AA002000A5
:1057400066082C00AB00080000302C003302AB319F
:10575000031DBF2B00303202AB31031DBF2B0030C5
:105760003102AB31031DBF2B00303002AB31031DC2
:10577000BF2B2000BA01BB01BC01BD0108002C00F9
:10578000B401B501AB31B31BC72BAB31C92B2C0016
:10579000B5172C00AB31331BCF2BAB31D12B2C00E9
:1057A000B5172C00AB31B31AD72BAB31D92B2C004A
:1057B00035172C00AB31331ADF2BAB31E12B2C002A
:1057C00035172C00AB31B319E72BAB31E92B2C008B
:1057D000B5162C00AB313319EF2BAB31F12B2C006C
:1057E000B5162C00AB31B318F72BAB31F92B2C00CD
:1057F00035162C00AB313318FF2BAC31012C2C00AB
:1058000035162C00AC31B21B072CAC31092C2C0006
:10581000B5152C00AC31321B0F2CAC31112C2C00E7
:10582000B5152C00AC31B21A172CAC31192C2C0048
:1058300035152C00AC31321A1F2CAC31212C2C0028
:1058400035152C00AC31B219272CAC31292C2C0089
:10585000B5142C00AC3132192F2CAC31312C2C006A
:10586000B5142C00AC31B218372CAC31392C2C00CB
:1058700034142C00AC3132183F2CAC31412C2C00AC
:1058800035142C00AC31B11B472CAC31492C2C0009
:10589000B4172C00AC31311B4F2CAC31512C2C00E7
:1058A000B4172C00AC31B11A572CAC31592C2C0048
:1058B00034172C00AC31311A5F2CAC31612C2C0028
:1058C00034172C00AC31B119672CAC31692C2C0089
:1058D000B4162C00AC3131196F2CAC31712C2C006A
:1058E000B4162C00AC31B118772CAC31792C2C00CB
:1058F00034162C00AC3131187F2CAC31812C2C00AB
:1059000034162C00AC31B01B872CAC31892C2C0008
:10591000B4152C00AC31301B8F2CAC31912C2C00E9
:10592000B4152C00AC31B01A972CAC31992C2C004A
:1059300034152C00AC31301A9F2CAC31A12C2C002A
:1059400034152C00AC31B019A72CAC31A92C2C008B
:10595000B4142C00AC313019AF2CAC31B12C2C006C
:10596000B4142C00341434082000BA002C0035087C
:105970002000BB00AC31C324AC31C324AC31C32400
:10598000AC31C32408002C003008A0003108A1006D
:105990003208A2003308A30020003A082C00A4001B
:1059A00020003B082C00A500A601A701AA31DD229A
:1059B0002000BC01BD012C0028082000BA07AC3132
:1059C0000318E42CAC31E72C01302000BB07200089
:1059D000AC310318ED2CAC31F02C01302000BC07A9
:1059E0002000AC310318F62CAC31F92C013020002A
:1059F000BD072C0029082000BB07AD310318022D7C
:105A0000AD31052D01302000BC072000AD31031859
:105A10000B2DAD310E2D01302000BD072C002A08C2
:105A20002000BC07AD310318172DAD311A2D013000
:105A30002000BD072C002B082000BD07BC36BB0C86
:105A4000BA0C08002200AD314F18282DAD31332D8E
:105A5000003022004A02AD31031D312D4F102B00C2
:105A60005010AD31B12D003022004A02AD31031D7E
:105A70003A2D0800033022004A02AD31031C432DA9
:105A80000319432D080022004F104A08CE00AE3102
:105A90009D26013022006502AD31031C522DAD312F
:105AA000031DB22D013022006502AD31031C602DB3
:105AB000F8306402AD31031C602DAD31031DB22DF1
:105AC00022004E08CA0001304A02AD31031D712D7B
:105AD0000030E0000030E1000030E2000030E30080
:105AE000CF01023022004A02AD31031D862DCF01C5
:105AF00000306302AD31031D842D00306202AD31F0
:105B0000031D842DAD318C2D2200CF1503302200D2
:105B10004A02AD31031DAD2D2200CF01B9315A210A
:105B2000B9318D2140302000DB02AD31031C9A2DAC
:105B3000AD319D2D01302000DC02A9310A21200069
:105B4000AD31DD1EA52DAD31A72D22004F16003041
:105B50002200E0000030E100CF1522004F142B009E
:105B6000501408002200CF14080000302200E70083
:105B70000E306702AD31031CC02DAD31031DF02D79
:105B8000AD31C92D0E3022006702AD310318F02D62
:105B9000E70A22006708890E090AE9000030EA00D6
:105BA0000D306A02AD31031CD82DAD31031DEE2D31
:105BB000AD31E12D0D3022006A02AD310318EE2D1A
:105BC000EA0A2200E90A2130200085002200690843
:105BD0002000840000308000AD31DA2DAD31C22DBF
:105BE000FF302300BC00FF30BD00FF30CC00FF3091
:105BF000CD00FF30DC00FF30DD00FF30EC00FF3077
:105C0000ED00FF302400AC00FF30AD00FF30BC00E1
:105C1000FF30BD00FF30CC00FF30CD00FF30DC0096
:105C2000FF30DD00FF30EC00FF30ED00FF302500DD
:105C3000AC00FF30AD00FF30BC00FF30BD00FF30D6
:105C4000CC00FF30CD00FF30DC00FF30DD00FF3046
:105C5000EC00FF30ED00FF302600AC00FF30AD005F
:105C6000080000302200EA000F306A02AE31031C47
:105C70003C2EAE31031D662EAE31452E0F30220074
:105C80006A02AE310318662EEA0A22006708890EFE
:105C9000E90069086A07E900213020008500220038
:105CA00069082000840000082200EB006A08F03E2A
:105CB000E9002130200085002200690820008400CE
:105CC00022006B0820008000AE313E2E080000301C
:105CD0002200EA000F306A02AE31031C722EAE3190
:105CE000031D9C2EAE317B2E0F3022006A02AE3196
:105CF00003189C2EEA0A22006A08F03EE9002130CF
:105D0000200085002200690820008400000822008D
:105D1000EB006708890EE90069086A07E90021308D
:105D200020008500220069082000840022006B0802
:105D300020008000AE31742E08002B00EC142200ED
:105D40004F110030E7000E306702AE31031CAB2E5E
:105D5000AE31031DC32EAE31B42E0E3022006702C9
:105D6000AE310318C32EE70A22006708890EE90046
:105D70002130200085002200690820008400FF30C7
:105D80008000AE31AD2E2200E7010030E800153072
:105D90006802AE31031CCF2EB031031D1928AE317D
:105DA000D82E153022006802B03103181928E80AED
:105DB0002200680889358935E900233020008500F4
:105DC000220069082000840000082200EA00E90A95
:105DD000233020008500220069082000840000088C
:105DE0002200EB00E90A2330200085002200690828
:105DF0002000840000082200E4006708890EE90002
:105E000000306A02AF31031D072FAF310D2F013073
:105E100022006A02AF31031D3D2F2200AF31EB1B80
:105E2000132FAF313D2F213020008500220069085B
:105E30002000840022006808200080002200E90A77
:105E4000AF316B1A252FAF31302F21302000850064
:105E5000220069082000840008308000AF31392F0B
:105E600021302000850022006908200084000130D4
:105E700080002200E70AB0310F28033022006A02B6
:105E8000AF31031DC22FAF31EB1B482FAF31C22FF3
:105E900021302000850022006908200084002200B3
:105EA0006808200080002200E90A213020008500D7
:105EB00022006908200084000A3080002200AF31EF
:105EC000EB18642FAF31BE2F023022006402AF31D5
:105ED000031C732F21302000850022006908200058
